{
	"bidder.sol": {
		"Ballot": {
			"abi": [
				{
					"constant": false,
					"inputs": [
						{
							"name": "toVoter",
							"type": "address"
						}
					],
					"name": "register",
					"outputs": [],
					"payable": false,
					"stateMutability": "nonpayable",
					"type": "function"
				},
				{
					"constant": true,
					"inputs": [],
					"name": "winningProposal",
					"outputs": [
						{
							"name": "_winningProposal",
							"type": "uint8"
						}
					],
					"payable": false,
					"stateMutability": "view",
					"type": "function"
				},
				{
					"constant": false,
					"inputs": [
						{
							"name": "toProposal",
							"type": "uint8"
						}
					],
					"name": "vote",
					"outputs": [],
					"payable": false,
					"stateMutability": "nonpayable",
					"type": "function"
				},
				{
					"constant": true,
					"inputs": [],
					"name": "stage",
					"outputs": [
						{
							"name": "",
							"type": "uint8"
						}
					],
					"payable": false,
					"stateMutability": "view",
					"type": "function"
				},
				{
					"inputs": [
						{
							"name": "_numProposals",
							"type": "uint8"
						}
					],
					"payable": false,
					"stateMutability": "nonpayable",
					"type": "constructor"
				}
			],
			"devdoc": {
				"methods": {}
			},
			"evm": {
				"assembly": "    /* \"bidder.sol\":58:2140  contract Ballot {\r... */\n  mstore(0x40, 0x80)\n    /* \"bidder.sol\":289:299  Stage.Init */\n  0x0\n    /* \"bidder.sol\":268:299  Stage public stage = Stage.Init */\n  dup1\n  exp(0x100, 0x0)\n  dup2\n  sload\n  dup2\n  0xff\n  mul\n  not\n  and\n  swap1\n  dup4\n  0x3\n  dup2\n  gt\n  iszero\n  tag_1\n  jumpi\n  invalid\ntag_1:\n  mul\n  or\n  swap1\n  sstore\n  pop\n    /* \"bidder.sol\":510:772  function Ballot(uint8 _numProposals) public  {\r... */\n  callvalue\n    /* \"--CODEGEN--\":8:17   */\n  dup1\n    /* \"--CODEGEN--\":5:7   */\n  iszero\n  tag_2\n  jumpi\n    /* \"--CODEGEN--\":30:31   */\n  0x0\n    /* \"--CODEGEN--\":27:28   */\n  dup1\n    /* \"--CODEGEN--\":20:32   */\n  revert\n    /* \"--CODEGEN--\":5:7   */\ntag_2:\n    /* \"bidder.sol\":510:772  function Ballot(uint8 _numProposals) public  {\r... */\n  pop\n  mload(0x40)\n  0x20\n  dup1\n  bytecodeSize\n  dup4\n  codecopy\n  dup2\n  add\n  dup1\n  0x40\n  mstore\n  dup2\n  add\n  swap1\n  dup1\n  dup1\n  mload\n  swap1\n  0x20\n  add\n  swap1\n  swap3\n  swap2\n  swap1\n  pop\n  pop\n  pop\n    /* \"bidder.sol\":580:590  msg.sender */\n  caller\n    /* \"bidder.sol\":566:577  chairperson */\n  0x0\n  0x1\n    /* \"bidder.sol\":566:590  chairperson = msg.sender */\n  0x100\n  exp\n  dup2\n  sload\n  dup2\n  0xffffffffffffffffffffffffffffffffffffffff\n  mul\n  not\n  and\n  swap1\n  dup4\n  0xffffffffffffffffffffffffffffffffffffffff\n  and\n  mul\n  or\n  swap1\n  sstore\n  pop\n    /* \"bidder.sol\":630:631  2 */\n  0x2\n    /* \"bidder.sol\":601:607  voters */\n  0x1\n    /* \"bidder.sol\":601:620  voters[chairperson] */\n  0x0\n    /* \"bidder.sol\":608:619  chairperson */\n  dup1\n  0x1\n  swap1\n  sload\n  swap1\n  0x100\n  exp\n  swap1\n  div\n  0xffffffffffffffffffffffffffffffffffffffff\n  and\n    /* \"bidder.sol\":601:620  voters[chairperson] */\n  0xffffffffffffffffffffffffffffffffffffffff\n  and\n  0xffffffffffffffffffffffffffffffffffffffff\n  and\n  dup2\n  mstore\n  0x20\n  add\n  swap1\n  dup2\n  mstore\n  0x20\n  add\n  0x0\n  keccak256\n    /* \"bidder.sol\":601:627  voters[chairperson].weight */\n  0x0\n  add\n    /* \"bidder.sol\":601:631  voters[chairperson].weight = 2 */\n  dup2\n  swap1\n  sstore\n  pop\n    /* \"bidder.sol\":697:710  _numProposals */\n  dup1\n    /* \"bidder.sol\":678:710  proposals.length = _numProposals */\n  0xff\n  and\n    /* \"bidder.sol\":678:687  proposals */\n  0x2\n    /* \"bidder.sol\":678:710  proposals.length = _numProposals */\n  dup2\n  tag_5\n  swap2\n  swap1\n  jump\t// in(tag_6)\ntag_5:\n  pop\n    /* \"bidder.sol\":729:738  Stage.Reg */\n  0x1\n    /* \"bidder.sol\":721:726  stage */\n  0x0\n  dup1\n    /* \"bidder.sol\":721:738  stage = Stage.Reg */\n  0x100\n  exp\n  dup2\n  sload\n  dup2\n  0xff\n  mul\n  not\n  and\n  swap1\n  dup4\n  0x3\n  dup2\n  gt\n  iszero\n  tag_7\n  jumpi\n  invalid\ntag_7:\n  mul\n  or\n  swap1\n  sstore\n  pop\n    /* \"bidder.sol\":761:764  now */\n  timestamp\n    /* \"bidder.sol\":749:758  startTime */\n  0x3\n    /* \"bidder.sol\":749:764  startTime = now */\n  dup2\n  swap1\n  sstore\n  pop\n    /* \"bidder.sol\":510:772  function Ballot(uint8 _numProposals) public  {\r... */\n  pop\n    /* \"bidder.sol\":58:2140  contract Ballot {\r... */\n  jump(tag_8)\ntag_6:\n  dup2\n  sload\n  dup2\n  dup4\n  sstore\n  dup2\n  dup2\n  gt\n  iszero\n  tag_9\n  jumpi\n  dup2\n  dup4\n  0x0\n  mstore\n  keccak256(0x0, 0x20)\n  swap2\n  dup3\n  add\n  swap2\n  add\n  tag_10\n  swap2\n  swap1\n  jump\t// in(tag_11)\ntag_10:\ntag_9:\n  pop\n  pop\n  pop\n  jump\t// out\ntag_11:\n  tag_12\n  swap2\n  swap1\ntag_13:\n  dup1\n  dup3\n  gt\n  iszero\n  tag_14\n  jumpi\n  0x0\n  dup1\n  dup3\n  add\n  0x0\n  swap1\n  sstore\n  pop\n  0x1\n  add\n  jump(tag_13)\ntag_14:\n  pop\n  swap1\n  jump\ntag_12:\n  swap1\n  jump\t// out\ntag_8:\n  dataSize(sub_0)\n  dup1\n  dataOffset(sub_0)\n  0x0\n  codecopy\n  0x0\n  return\nstop\n\nsub_0: assembly {\n        /* \"bidder.sol\":58:2140  contract Ballot {\r... */\n      mstore(0x40, 0x80)\n      jumpi(tag_1, lt(calldatasize, 0x4))\n      calldataload(0x0)\n      0x100000000000000000000000000000000000000000000000000000000\n      swap1\n      div\n      0xffffffff\n      and\n      dup1\n      0x4420e486\n      eq\n      tag_2\n      jumpi\n      dup1\n      0x609ff1bd\n      eq\n      tag_3\n      jumpi\n      dup1\n      0xb3f98adc\n      eq\n      tag_4\n      jumpi\n      dup1\n      0xc040e6b8\n      eq\n      tag_5\n      jumpi\n    tag_1:\n      0x0\n      dup1\n      revert\n        /* \"bidder.sol\":886:1220  function register(address toVoter) public {\r... */\n    tag_2:\n      callvalue\n        /* \"--CODEGEN--\":8:17   */\n      dup1\n        /* \"--CODEGEN--\":5:7   */\n      iszero\n      tag_6\n      jumpi\n        /* \"--CODEGEN--\":30:31   */\n      0x0\n        /* \"--CODEGEN--\":27:28   */\n      dup1\n        /* \"--CODEGEN--\":20:32   */\n      revert\n        /* \"--CODEGEN--\":5:7   */\n    tag_6:\n        /* \"bidder.sol\":886:1220  function register(address toVoter) public {\r... */\n      pop\n      tag_7\n      0x4\n      dup1\n      calldatasize\n      sub\n      dup2\n      add\n      swap1\n      dup1\n      dup1\n      calldataload\n      0xffffffffffffffffffffffffffffffffffffffff\n      and\n      swap1\n      0x20\n      add\n      swap1\n      swap3\n      swap2\n      swap1\n      pop\n      pop\n      pop\n      jump(tag_8)\n    tag_7:\n      stop\n        /* \"bidder.sol\":1715:2137  function winningProposal() public constant returns (uint8 _winningProposal) {\r... */\n    tag_3:\n      callvalue\n        /* \"--CODEGEN--\":8:17   */\n      dup1\n        /* \"--CODEGEN--\":5:7   */\n      iszero\n      tag_9\n      jumpi\n        /* \"--CODEGEN--\":30:31   */\n      0x0\n        /* \"--CODEGEN--\":27:28   */\n      dup1\n        /* \"--CODEGEN--\":20:32   */\n      revert\n        /* \"--CODEGEN--\":5:7   */\n    tag_9:\n        /* \"bidder.sol\":1715:2137  function winningProposal() public constant returns (uint8 _winningProposal) {\r... */\n      pop\n      tag_10\n      jump(tag_11)\n    tag_10:\n      mload(0x40)\n      dup1\n      dup3\n      0xff\n      and\n      0xff\n      and\n      dup2\n      mstore\n      0x20\n      add\n      swap2\n      pop\n      pop\n      mload(0x40)\n      dup1\n      swap2\n      sub\n      swap1\n      return\n        /* \"bidder.sol\":1283:1707  function vote(uint8 toProposal) public  {\r... */\n    tag_4:\n      callvalue\n        /* \"--CODEGEN--\":8:17   */\n      dup1\n        /* \"--CODEGEN--\":5:7   */\n      iszero\n      tag_12\n      jumpi\n        /* \"--CODEGEN--\":30:31   */\n      0x0\n        /* \"--CODEGEN--\":27:28   */\n      dup1\n        /* \"--CODEGEN--\":20:32   */\n      revert\n        /* \"--CODEGEN--\":5:7   */\n    tag_12:\n        /* \"bidder.sol\":1283:1707  function vote(uint8 toProposal) public  {\r... */\n      pop\n      tag_13\n      0x4\n      dup1\n      calldatasize\n      sub\n      dup2\n      add\n      swap1\n      dup1\n      dup1\n      calldataload\n      0xff\n      and\n      swap1\n      0x20\n      add\n      swap1\n      swap3\n      swap2\n      swap1\n      pop\n      pop\n      pop\n      jump(tag_14)\n    tag_13:\n      stop\n        /* \"bidder.sol\":268:299  Stage public stage = Stage.Init */\n    tag_5:\n      callvalue\n        /* \"--CODEGEN--\":8:17   */\n      dup1\n        /* \"--CODEGEN--\":5:7   */\n      iszero\n      tag_15\n      jumpi\n        /* \"--CODEGEN--\":30:31   */\n      0x0\n        /* \"--CODEGEN--\":27:28   */\n      dup1\n        /* \"--CODEGEN--\":20:32   */\n      revert\n        /* \"--CODEGEN--\":5:7   */\n    tag_15:\n        /* \"bidder.sol\":268:299  Stage public stage = Stage.Init */\n      pop\n      tag_16\n      jump(tag_17)\n    tag_16:\n      mload(0x40)\n      dup1\n      dup3\n      0x3\n      dup2\n      gt\n      iszero\n      tag_18\n      jumpi\n      invalid\n    tag_18:\n      0xff\n      and\n      dup2\n      mstore\n      0x20\n      add\n      swap2\n      pop\n      pop\n      mload(0x40)\n      dup1\n      swap2\n      sub\n      swap1\n      return\n        /* \"bidder.sol\":886:1220  function register(address toVoter) public {\r... */\n    tag_8:\n        /* \"bidder.sol\":952:961  Stage.Reg */\n      0x1\n        /* \"bidder.sol\":943:961  stage != Stage.Reg */\n      0x3\n      dup2\n      gt\n      iszero\n      tag_20\n      jumpi\n      invalid\n    tag_20:\n        /* \"bidder.sol\":943:948  stage */\n      0x0\n      dup1\n      swap1\n      sload\n      swap1\n      0x100\n      exp\n      swap1\n      div\n      0xff\n      and\n        /* \"bidder.sol\":943:961  stage != Stage.Reg */\n      0x3\n      dup2\n      gt\n      iszero\n      tag_21\n      jumpi\n      invalid\n    tag_21:\n      eq\n      iszero\n        /* \"bidder.sol\":939:972  if (stage != Stage.Reg) {return;} */\n      iszero\n      tag_22\n      jumpi\n        /* \"bidder.sol\":964:971  return; */\n      jump(tag_19)\n        /* \"bidder.sol\":939:972  if (stage != Stage.Reg) {return;} */\n    tag_22:\n        /* \"bidder.sol\":1000:1011  chairperson */\n      0x0\n      0x1\n      swap1\n      sload\n      swap1\n      0x100\n      exp\n      swap1\n      div\n      0xffffffffffffffffffffffffffffffffffffffff\n      and\n        /* \"bidder.sol\":986:1011  msg.sender != chairperson */\n      0xffffffffffffffffffffffffffffffffffffffff\n      and\n        /* \"bidder.sol\":986:996  msg.sender */\n      caller\n        /* \"bidder.sol\":986:1011  msg.sender != chairperson */\n      0xffffffffffffffffffffffffffffffffffffffff\n      and\n      eq\n      iszero\n        /* \"bidder.sol\":986:1036  msg.sender != chairperson || voters[toVoter].voted */\n      dup1\n      tag_23\n      jumpi\n      pop\n        /* \"bidder.sol\":1015:1021  voters */\n      0x1\n        /* \"bidder.sol\":1015:1030  voters[toVoter] */\n      0x0\n        /* \"bidder.sol\":1022:1029  toVoter */\n      dup3\n        /* \"bidder.sol\":1015:1030  voters[toVoter] */\n      0xffffffffffffffffffffffffffffffffffffffff\n      and\n      0xffffffffffffffffffffffffffffffffffffffff\n      and\n      dup2\n      mstore\n      0x20\n      add\n      swap1\n      dup2\n      mstore\n      0x20\n      add\n      0x0\n      keccak256\n        /* \"bidder.sol\":1015:1036  voters[toVoter].voted */\n      0x1\n      add\n      0x0\n      swap1\n      sload\n      swap1\n      0x100\n      exp\n      swap1\n      div\n      0xff\n      and\n        /* \"bidder.sol\":986:1036  msg.sender != chairperson || voters[toVoter].voted */\n    tag_23:\n        /* \"bidder.sol\":982:1045  if (msg.sender != chairperson || voters[toVoter].voted) return; */\n      iszero\n      tag_24\n      jumpi\n        /* \"bidder.sol\":1038:1045  return; */\n      jump(tag_19)\n        /* \"bidder.sol\":982:1045  if (msg.sender != chairperson || voters[toVoter].voted) return; */\n    tag_24:\n        /* \"bidder.sol\":1080:1081  1 */\n      0x1\n        /* \"bidder.sol\":1055:1061  voters */\n      dup1\n        /* \"bidder.sol\":1055:1070  voters[toVoter] */\n      0x0\n        /* \"bidder.sol\":1062:1069  toVoter */\n      dup4\n        /* \"bidder.sol\":1055:1070  voters[toVoter] */\n      0xffffffffffffffffffffffffffffffffffffffff\n      and\n      0xffffffffffffffffffffffffffffffffffffffff\n      and\n      dup2\n      mstore\n      0x20\n      add\n      swap1\n      dup2\n      mstore\n      0x20\n      add\n      0x0\n      keccak256\n        /* \"bidder.sol\":1055:1077  voters[toVoter].weight */\n      0x0\n      add\n        /* \"bidder.sol\":1055:1081  voters[toVoter].weight = 1 */\n      dup2\n      swap1\n      sstore\n      pop\n        /* \"bidder.sol\":1116:1121  false */\n      0x0\n        /* \"bidder.sol\":1092:1098  voters */\n      0x1\n        /* \"bidder.sol\":1092:1107  voters[toVoter] */\n      0x0\n        /* \"bidder.sol\":1099:1106  toVoter */\n      dup4\n        /* \"bidder.sol\":1092:1107  voters[toVoter] */\n      0xffffffffffffffffffffffffffffffffffffffff\n      and\n      0xffffffffffffffffffffffffffffffffffffffff\n      and\n      dup2\n      mstore\n      0x20\n      add\n      swap1\n      dup2\n      mstore\n      0x20\n      add\n      0x0\n      keccak256\n        /* \"bidder.sol\":1092:1113  voters[toVoter].voted */\n      0x1\n      add\n      0x0\n        /* \"bidder.sol\":1092:1121  voters[toVoter].voted = false */\n      0x100\n      exp\n      dup2\n      sload\n      dup2\n      0xff\n      mul\n      not\n      and\n      swap1\n      dup4\n      iszero\n      iszero\n      mul\n      or\n      swap1\n      sstore\n      pop\n        /* \"bidder.sol\":1154:1164  10 seconds */\n      0xa\n        /* \"bidder.sol\":1143:1152  startTime */\n      sload(0x3)\n        /* \"bidder.sol\":1143:1164  startTime+ 10 seconds */\n      add\n        /* \"bidder.sol\":1136:1139  now */\n      timestamp\n        /* \"bidder.sol\":1136:1165  now > (startTime+ 10 seconds) */\n      gt\n        /* \"bidder.sol\":1132:1205  if (now > (startTime+ 10 seconds)) {stage = Stage.Vote; startTime = now;} */\n      iszero\n      tag_25\n      jumpi\n        /* \"bidder.sol\":1176:1186  Stage.Vote */\n      0x2\n        /* \"bidder.sol\":1168:1173  stage */\n      0x0\n      dup1\n        /* \"bidder.sol\":1168:1186  stage = Stage.Vote */\n      0x100\n      exp\n      dup2\n      sload\n      dup2\n      0xff\n      mul\n      not\n      and\n      swap1\n      dup4\n      0x3\n      dup2\n      gt\n      iszero\n      tag_26\n      jumpi\n      invalid\n    tag_26:\n      mul\n      or\n      swap1\n      sstore\n      pop\n        /* \"bidder.sol\":1200:1203  now */\n      timestamp\n        /* \"bidder.sol\":1188:1197  startTime */\n      0x3\n        /* \"bidder.sol\":1188:1203  startTime = now */\n      dup2\n      swap1\n      sstore\n      pop\n        /* \"bidder.sol\":1132:1205  if (now > (startTime+ 10 seconds)) {stage = Stage.Vote; startTime = now;} */\n    tag_25:\n        /* \"bidder.sol\":886:1220  function register(address toVoter) public {\r... */\n    tag_19:\n      pop\n      jump\t// out\n        /* \"bidder.sol\":1715:2137  function winningProposal() public constant returns (uint8 _winningProposal) {\r... */\n    tag_11:\n        /* \"bidder.sol\":1767:1789  uint8 _winningProposal */\n      0x0\n        /* \"bidder.sol\":1844:1868  uint256 winningVoteCount */\n      dup1\n        /* \"bidder.sol\":1888:1898  uint8 prop */\n      0x0\n        /* \"bidder.sol\":1813:1823  Stage.Done */\n      0x3\n        /* \"bidder.sol\":1804:1823  stage != Stage.Done */\n      dup1\n      dup2\n      gt\n      iszero\n      tag_28\n      jumpi\n      invalid\n    tag_28:\n        /* \"bidder.sol\":1804:1809  stage */\n      0x0\n      dup1\n      swap1\n      sload\n      swap1\n      0x100\n      exp\n      swap1\n      div\n      0xff\n      and\n        /* \"bidder.sol\":1804:1823  stage != Stage.Done */\n      0x3\n      dup2\n      gt\n      iszero\n      tag_29\n      jumpi\n      invalid\n    tag_29:\n      eq\n      iszero\n        /* \"bidder.sol\":1801:1834  if(stage != Stage.Done) {return;} */\n      iszero\n      tag_30\n      jumpi\n        /* \"bidder.sol\":1826:1833  return; */\n      jump(tag_27)\n        /* \"bidder.sol\":1801:1834  if(stage != Stage.Done) {return;} */\n    tag_30:\n        /* \"bidder.sol\":1871:1872  0 */\n      0x0\n        /* \"bidder.sol\":1844:1872  uint256 winningVoteCount = 0 */\n      swap2\n      pop\n        /* \"bidder.sol\":1901:1902  0 */\n      0x0\n        /* \"bidder.sol\":1888:1902  uint8 prop = 0 */\n      swap1\n      pop\n        /* \"bidder.sol\":1883:2121  for (uint8 prop = 0; prop < proposals.length; prop++)\r... */\n    tag_31:\n        /* \"bidder.sol\":1911:1920  proposals */\n      0x2\n        /* \"bidder.sol\":1911:1927  proposals.length */\n      dup1\n      sload\n      swap1\n      pop\n        /* \"bidder.sol\":1904:1908  prop */\n      dup2\n        /* \"bidder.sol\":1904:1927  prop < proposals.length */\n      0xff\n      and\n      lt\n        /* \"bidder.sol\":1883:2121  for (uint8 prop = 0; prop < proposals.length; prop++)\r... */\n      iszero\n      tag_32\n      jumpi\n        /* \"bidder.sol\":1982:1998  winningVoteCount */\n      dup2\n        /* \"bidder.sol\":1954:1963  proposals */\n      0x2\n        /* \"bidder.sol\":1964:1968  prop */\n      dup3\n        /* \"bidder.sol\":1954:1969  proposals[prop] */\n      0xff\n      and\n      dup2\n      sload\n      dup2\n      lt\n      iszero\n      iszero\n      tag_34\n      jumpi\n      invalid\n    tag_34:\n      swap1\n      0x0\n      mstore\n      keccak256(0x0, 0x20)\n      add\n        /* \"bidder.sol\":1954:1979  proposals[prop].voteCount */\n      0x0\n      add\n      sload\n        /* \"bidder.sol\":1954:1998  proposals[prop].voteCount > winningVoteCount */\n      gt\n        /* \"bidder.sol\":1950:2121  if (proposals[prop].voteCount > winningVoteCount) {\r... */\n      iszero\n      tag_36\n      jumpi\n        /* \"bidder.sol\":2038:2047  proposals */\n      0x2\n        /* \"bidder.sol\":2048:2052  prop */\n      dup2\n        /* \"bidder.sol\":2038:2053  proposals[prop] */\n      0xff\n      and\n      dup2\n      sload\n      dup2\n      lt\n      iszero\n      iszero\n      tag_37\n      jumpi\n      invalid\n    tag_37:\n      swap1\n      0x0\n      mstore\n      keccak256(0x0, 0x20)\n      add\n        /* \"bidder.sol\":2038:2063  proposals[prop].voteCount */\n      0x0\n      add\n      sload\n        /* \"bidder.sol\":2019:2063  winningVoteCount = proposals[prop].voteCount */\n      swap2\n      pop\n        /* \"bidder.sol\":2101:2105  prop */\n      dup1\n        /* \"bidder.sol\":2082:2105  _winningProposal = prop */\n      swap3\n      pop\n        /* \"bidder.sol\":1950:2121  if (proposals[prop].voteCount > winningVoteCount) {\r... */\n    tag_36:\n        /* \"bidder.sol\":1929:1935  prop++ */\n      dup1\n      dup1\n      0x1\n      add\n      swap2\n      pop\n      pop\n        /* \"bidder.sol\":1883:2121  for (uint8 prop = 0; prop < proposals.length; prop++)\r... */\n      jump(tag_31)\n    tag_32:\n        /* \"bidder.sol\":1715:2137  function winningProposal() public constant returns (uint8 _winningProposal) {\r... */\n    tag_27:\n      pop\n      pop\n      swap1\n      jump\t// out\n        /* \"bidder.sol\":1283:1707  function vote(uint8 toProposal) public  {\r... */\n    tag_14:\n        /* \"bidder.sol\":1378:1398  Voter storage sender */\n      0x0\n        /* \"bidder.sol\":1347:1357  Stage.Vote */\n      0x2\n        /* \"bidder.sol\":1338:1357  stage != Stage.Vote */\n      0x3\n      dup2\n      gt\n      iszero\n      tag_40\n      jumpi\n      invalid\n    tag_40:\n        /* \"bidder.sol\":1338:1343  stage */\n      0x0\n      dup1\n      swap1\n      sload\n      swap1\n      0x100\n      exp\n      swap1\n      div\n      0xff\n      and\n        /* \"bidder.sol\":1338:1357  stage != Stage.Vote */\n      0x3\n      dup2\n      gt\n      iszero\n      tag_41\n      jumpi\n      invalid\n    tag_41:\n      eq\n      iszero\n        /* \"bidder.sol\":1334:1368  if (stage != Stage.Vote) {return;} */\n      iszero\n      tag_42\n      jumpi\n        /* \"bidder.sol\":1360:1367  return; */\n      jump(tag_39)\n        /* \"bidder.sol\":1334:1368  if (stage != Stage.Vote) {return;} */\n    tag_42:\n        /* \"bidder.sol\":1401:1407  voters */\n      0x1\n        /* \"bidder.sol\":1401:1419  voters[msg.sender] */\n      0x0\n        /* \"bidder.sol\":1408:1418  msg.sender */\n      caller\n        /* \"bidder.sol\":1401:1419  voters[msg.sender] */\n      0xffffffffffffffffffffffffffffffffffffffff\n      and\n      0xffffffffffffffffffffffffffffffffffffffff\n      and\n      dup2\n      mstore\n      0x20\n      add\n      swap1\n      dup2\n      mstore\n      0x20\n      add\n      0x0\n      keccak256\n        /* \"bidder.sol\":1378:1419  Voter storage sender = voters[msg.sender] */\n      swap1\n      pop\n        /* \"bidder.sol\":1434:1440  sender */\n      dup1\n        /* \"bidder.sol\":1434:1446  sender.voted */\n      0x1\n      add\n      0x0\n      swap1\n      sload\n      swap1\n      0x100\n      exp\n      swap1\n      div\n      0xff\n      and\n        /* \"bidder.sol\":1434:1480  sender.voted || toProposal >= proposals.length */\n      dup1\n      tag_43\n      jumpi\n      pop\n        /* \"bidder.sol\":1464:1473  proposals */\n      0x2\n        /* \"bidder.sol\":1464:1480  proposals.length */\n      dup1\n      sload\n      swap1\n      pop\n        /* \"bidder.sol\":1450:1460  toProposal */\n      dup3\n        /* \"bidder.sol\":1450:1480  toProposal >= proposals.length */\n      0xff\n      and\n      lt\n      iszero\n        /* \"bidder.sol\":1434:1480  sender.voted || toProposal >= proposals.length */\n    tag_43:\n        /* \"bidder.sol\":1430:1489  if (sender.voted || toProposal >= proposals.length) return; */\n      iszero\n      tag_44\n      jumpi\n        /* \"bidder.sol\":1482:1489  return; */\n      jump(tag_39)\n        /* \"bidder.sol\":1430:1489  if (sender.voted || toProposal >= proposals.length) return; */\n    tag_44:\n        /* \"bidder.sol\":1514:1518  true */\n      0x1\n        /* \"bidder.sol\":1499:1505  sender */\n      dup2\n        /* \"bidder.sol\":1499:1511  sender.voted */\n      0x1\n      add\n      0x0\n        /* \"bidder.sol\":1499:1518  sender.voted = true */\n      0x100\n      exp\n      dup2\n      sload\n      dup2\n      0xff\n      mul\n      not\n      and\n      swap1\n      dup4\n      iszero\n      iszero\n      mul\n      or\n      swap1\n      sstore\n      pop\n        /* \"bidder.sol\":1543:1553  toProposal */\n      dup2\n        /* \"bidder.sol\":1529:1535  sender */\n      dup2\n        /* \"bidder.sol\":1529:1540  sender.vote */\n      0x1\n      add\n      0x1\n        /* \"bidder.sol\":1529:1553  sender.vote = toProposal */\n      0x100\n      exp\n      dup2\n      sload\n      dup2\n      0xff\n      mul\n      not\n      and\n      swap1\n      dup4\n      0xff\n      and\n      mul\n      or\n      swap1\n      sstore\n      pop\n        /* \"bidder.sol\":1602:1608  sender */\n      dup1\n        /* \"bidder.sol\":1602:1615  sender.weight */\n      0x0\n      add\n      sload\n        /* \"bidder.sol\":1567:1576  proposals */\n      0x2\n        /* \"bidder.sol\":1577:1587  toProposal */\n      dup4\n        /* \"bidder.sol\":1567:1588  proposals[toProposal] */\n      0xff\n      and\n      dup2\n      sload\n      dup2\n      lt\n      iszero\n      iszero\n      tag_45\n      jumpi\n      invalid\n    tag_45:\n      swap1\n      0x0\n      mstore\n      keccak256(0x0, 0x20)\n      add\n        /* \"bidder.sol\":1567:1598  proposals[toProposal].voteCount */\n      0x0\n      add\n      0x0\n        /* \"bidder.sol\":1567:1615  proposals[toProposal].voteCount += sender.weight */\n      dup3\n      dup3\n      sload\n      add\n      swap3\n      pop\n      pop\n      dup2\n      swap1\n      sstore\n      pop\n        /* \"bidder.sol\":1648:1658  10 seconds */\n      0xa\n        /* \"bidder.sol\":1637:1646  startTime */\n      sload(0x3)\n        /* \"bidder.sol\":1637:1658  startTime+ 10 seconds */\n      add\n        /* \"bidder.sol\":1630:1633  now */\n      timestamp\n        /* \"bidder.sol\":1630:1659  now > (startTime+ 10 seconds) */\n      gt\n        /* \"bidder.sol\":1626:1682  if (now > (startTime+ 10 seconds)) {stage = Stage.Done;} */\n      iszero\n      tag_47\n      jumpi\n        /* \"bidder.sol\":1670:1680  Stage.Done */\n      0x3\n        /* \"bidder.sol\":1662:1667  stage */\n      0x0\n      dup1\n        /* \"bidder.sol\":1662:1680  stage = Stage.Done */\n      0x100\n      exp\n      dup2\n      sload\n      dup2\n      0xff\n      mul\n      not\n      and\n      swap1\n      dup4\n      0x3\n      dup2\n      gt\n      iszero\n      tag_48\n      jumpi\n      invalid\n    tag_48:\n      mul\n      or\n      swap1\n      sstore\n      pop\n        /* \"bidder.sol\":1626:1682  if (now > (startTime+ 10 seconds)) {stage = Stage.Done;} */\n    tag_47:\n        /* \"bidder.sol\":1283:1707  function vote(uint8 toProposal) public  {\r... */\n    tag_39:\n      pop\n      pop\n      jump\t// out\n        /* \"bidder.sol\":268:299  Stage public stage = Stage.Init */\n    tag_17:\n      0x0\n      dup1\n      swap1\n      sload\n      swap1\n      0x100\n      exp\n      swap1\n      div\n      0xff\n      and\n      dup2\n      jump\t// out\n\n    auxdata: 0xa165627a7a723058201de54c389fa5bf6ed86f1a22311b7ce34fd4cb7ee5d5e63cadc05fdc59d078e50029\n}\n",
				"bytecode": {
					"linkReferences": {},
					"object": "608060405260008060006101000a81548160ff0219169083600381111561002257fe5b021790555034801561003357600080fd5b506040516020806106e08339810180604052810190808051906020019092919050505033600060016101000a81548173ffffffffffffffffffffffffffffffffffffffff021916908373ffffffffffffffffffffffffffffffffffffffff1602179055506002600160008060019054906101000a900473ffffffffffffffffffffffffffffffffffffffff1673ffffffffffffffffffffffffffffffffffffffff1673ffffffffffffffffffffffffffffffffffffffff168152602001908152602001600020600001819055508060ff166002816101119190610142565b5060016000806101000a81548160ff0219169083600381111561013057fe5b02179055504260038190555050610195565b81548183558181111561016957818360005260206000209182019101610168919061016e565b5b505050565b61019291905b8082111561018e5760008082016000905550600101610174565b5090565b90565b61053c806101a46000396000f300608060405260043610610062576000357c0100000000000000000000000000000000000000000000000000000000900463ffffffff1680634420e48614610067578063609ff1bd146100aa578063b3f98adc146100db578063c040e6b81461010b575b600080fd5b34801561007357600080fd5b506100a8600480360381019080803573ffffffffffffffffffffffffffffffffffffffff169060200190929190505050610144565b005b3480156100b657600080fd5b506100bf610308565b604051808260ff1660ff16815260200191505060405180910390f35b3480156100e757600080fd5b50610109600480360381019080803560ff1690602001909291905050506103b8565b005b34801561011757600080fd5b506101206104fe565b6040518082600381111561013057fe5b60ff16815260200191505060405180910390f35b6001600381111561015157fe5b6000809054906101000a900460ff16600381111561016b57fe5b14151561017757610305565b600060019054906101000a900473ffffffffffffffffffffffffffffffffffffffff1673ffffffffffffffffffffffffffffffffffffffff163373ffffffffffffffffffffffffffffffffffffffff161415806102205750600160008273ffffffffffffffffffffffffffffffffffffffff1673ffffffffffffffffffffffffffffffffffffffff16815260200190815260200160002060010160009054906101000a900460ff165b1561022a57610305565b60018060008373ffffffffffffffffffffffffffffffffffffffff1673ffffffffffffffffffffffffffffffffffffffff168152602001908152602001600020600001819055506000600160008373ffffffffffffffffffffffffffffffffffffffff1673ffffffffffffffffffffffffffffffffffffffff16815260200190815260200160002060010160006101000a81548160ff021916908315150217905550600a600354014211156103045760026000806101000a81548160ff021916908360038111156102f757fe5b0217905550426003819055505b5b50565b600080600060038081111561031957fe5b6000809054906101000a900460ff16600381111561033357fe5b14151561033f576103b3565b60009150600090505b6002805490508160ff1610156103b2578160028260ff1681548110151561036b57fe5b906000526020600020016000015411156103a55760028160ff1681548110151561039157fe5b906000526020600020016000015491508092505b8080600101915050610348565b5b505090565b6000600260038111156103c757fe5b6000809054906101000a900460ff1660038111156103e157fe5b1415156103ed576104fa565b600160003373ffffffffffffffffffffffffffffffffffffffff1673ffffffffffffffffffffffffffffffffffffffff16815260200190815260200160002090508060010160009054906101000a900460ff168061045357506002805490508260ff1610155b1561045d576104fa565b60018160010160006101000a81548160ff021916908315150217905550818160010160016101000a81548160ff021916908360ff160217905550806000015460028360ff168154811015156104ae57fe5b9060005260206000200160000160008282540192505081905550600a600354014211156104f95760036000806101000a81548160ff021916908360038111156104f357fe5b02179055505b5b5050565b6000809054906101000a900460ff16815600a165627a7a723058201de54c389fa5bf6ed86f1a22311b7ce34fd4cb7ee5d5e63cadc05fdc59d078e50029",
					"opcodes": "PUSH1 0x80 PUSH1 0x40 MSTORE PUSH1 0x0 DUP1 PUSH1 0x0 PUSH2 0x100 EXP DUP2 SLOAD DUP2 PUSH1 0xFF MUL NOT AND SWAP1 DUP4 PUSH1 0x3 DUP2 GT ISZERO PUSH2 0x22 JUMPI INVALID JUMPDEST MUL OR SWAP1 SSTORE POP CALLVALUE DUP1 ISZERO PUSH2 0x33 JUMPI PUSH1 0x0 DUP1 REVERT JUMPDEST POP PUSH1 0x40 MLOAD PUSH1 0x20 DUP1 PUSH2 0x6E0 DUP4 CODECOPY DUP2 ADD DUP1 PUSH1 0x40 MSTORE DUP2 ADD SWAP1 DUP1 DUP1 MLOAD SWAP1 PUSH1 0x20 ADD SWAP1 SWAP3 SWAP2 SWAP1 POP POP POP CALLER PUSH1 0x0 PUSH1 0x1 PUSH2 0x100 EXP DUP2 SLOAD DUP2 PUSH20 0xFFFFFFFFFFFFFFFFFFFFFFFFFFFFFFFFFFFFFFFF MUL NOT AND SWAP1 DUP4 PUSH20 0xFFFFFFFFFFFFFFFFFFFFFFFFFFFFFFFFFFFFFFFF AND MUL OR SWAP1 SSTORE POP PUSH1 0x2 PUSH1 0x1 PUSH1 0x0 DUP1 PUSH1 0x1 SWAP1 SLOAD SWAP1 PUSH2 0x100 EXP SWAP1 DIV PUSH20 0xFFFFFFFFFFFFFFFFFFFFFFFFFFFFFFFFFFFFFFFF AND PUSH20 0xFFFFFFFFFFFFFFFFFFFFFFFFFFFFFFFFFFFFFFFF AND PUSH20 0xFFFFFFFFFFFFFFFFFFFFFFFFFFFFFFFFFFFFFFFF AND DUP2 MSTORE PUSH1 0x20 ADD SWAP1 DUP2 MSTORE PUSH1 0x20 ADD PUSH1 0x0 KECCAK256 PUSH1 0x0 ADD DUP2 SWAP1 SSTORE POP DUP1 PUSH1 0xFF AND PUSH1 0x2 DUP2 PUSH2 0x111 SWAP2 SWAP1 PUSH2 0x142 JUMP JUMPDEST POP PUSH1 0x1 PUSH1 0x0 DUP1 PUSH2 0x100 EXP DUP2 SLOAD DUP2 PUSH1 0xFF MUL NOT AND SWAP1 DUP4 PUSH1 0x3 DUP2 GT ISZERO PUSH2 0x130 JUMPI INVALID JUMPDEST MUL OR SWAP1 SSTORE POP TIMESTAMP PUSH1 0x3 DUP2 SWAP1 SSTORE POP POP PUSH2 0x195 JUMP JUMPDEST DUP2 SLOAD DUP2 DUP4 SSTORE DUP2 DUP2 GT ISZERO PUSH2 0x169 JUMPI DUP2 DUP4 PUSH1 0x0 MSTORE PUSH1 0x20 PUSH1 0x0 KECCAK256 SWAP2 DUP3 ADD SWAP2 ADD PUSH2 0x168 SWAP2 SWAP1 PUSH2 0x16E JUMP JUMPDEST JUMPDEST POP POP POP JUMP JUMPDEST PUSH2 0x192 SWAP2 SWAP1 JUMPDEST DUP1 DUP3 GT ISZERO PUSH2 0x18E JUMPI PUSH1 0x0 DUP1 DUP3 ADD PUSH1 0x0 SWAP1 SSTORE POP PUSH1 0x1 ADD PUSH2 0x174 JUMP JUMPDEST POP SWAP1 JUMP JUMPDEST SWAP1 JUMP JUMPDEST PUSH2 0x53C DUP1 PUSH2 0x1A4 PUSH1 0x0 CODECOPY PUSH1 0x0 RETURN STOP PUSH1 0x80 PUSH1 0x40 MSTORE PUSH1 0x4 CALLDATASIZE LT PUSH2 0x62 JUMPI PUSH1 0x0 CALLDATALOAD PUSH29 0x100000000000000000000000000000000000000000000000000000000 SWAP1 DIV PUSH4 0xFFFFFFFF AND DUP1 PUSH4 0x4420E486 EQ PUSH2 0x67 JUMPI DUP1 PUSH4 0x609FF1BD EQ PUSH2 0xAA JUMPI DUP1 PUSH4 0xB3F98ADC EQ PUSH2 0xDB JUMPI DUP1 PUSH4 0xC040E6B8 EQ PUSH2 0x10B JUMPI JUMPDEST PUSH1 0x0 DUP1 REVERT JUMPDEST CALLVALUE DUP1 ISZERO PUSH2 0x73 JUMPI PUSH1 0x0 DUP1 REVERT JUMPDEST POP PUSH2 0xA8 PUSH1 0x4 DUP1 CALLDATASIZE SUB DUP2 ADD SWAP1 DUP1 DUP1 CALLDATALOAD PUSH20 0xFFFFFFFFFFFFFFFFFFFFFFFFFFFFFFFFFFFFFFFF AND SWAP1 PUSH1 0x20 ADD SWAP1 SWAP3 SWAP2 SWAP1 POP POP POP PUSH2 0x144 JUMP JUMPDEST STOP JUMPDEST CALLVALUE DUP1 ISZERO PUSH2 0xB6 JUMPI PUSH1 0x0 DUP1 REVERT JUMPDEST POP PUSH2 0xBF PUSH2 0x308 JUMP JUMPDEST PUSH1 0x40 MLOAD DUP1 DUP3 PUSH1 0xFF AND PUSH1 0xFF AND DUP2 MSTORE PUSH1 0x20 ADD SWAP2 POP POP PUSH1 0x40 MLOAD DUP1 SWAP2 SUB SWAP1 RETURN JUMPDEST CALLVALUE DUP1 ISZERO PUSH2 0xE7 JUMPI PUSH1 0x0 DUP1 REVERT JUMPDEST POP PUSH2 0x109 PUSH1 0x4 DUP1 CALLDATASIZE SUB DUP2 ADD SWAP1 DUP1 DUP1 CALLDATALOAD PUSH1 0xFF AND SWAP1 PUSH1 0x20 ADD SWAP1 SWAP3 SWAP2 SWAP1 POP POP POP PUSH2 0x3B8 JUMP JUMPDEST STOP JUMPDEST CALLVALUE DUP1 ISZERO PUSH2 0x117 JUMPI PUSH1 0x0 DUP1 REVERT JUMPDEST POP PUSH2 0x120 PUSH2 0x4FE JUMP JUMPDEST PUSH1 0x40 MLOAD DUP1 DUP3 PUSH1 0x3 DUP2 GT ISZERO PUSH2 0x130 JUMPI INVALID JUMPDEST PUSH1 0xFF AND DUP2 MSTORE PUSH1 0x20 ADD SWAP2 POP POP PUSH1 0x40 MLOAD DUP1 SWAP2 SUB SWAP1 RETURN JUMPDEST PUSH1 0x1 PUSH1 0x3 DUP2 GT ISZERO PUSH2 0x151 JUMPI INVALID JUMPDEST PUSH1 0x0 DUP1 SWAP1 SLOAD SWAP1 PUSH2 0x100 EXP SWAP1 DIV PUSH1 0xFF AND PUSH1 0x3 DUP2 GT ISZERO PUSH2 0x16B JUMPI INVALID JUMPDEST EQ ISZERO ISZERO PUSH2 0x177 JUMPI PUSH2 0x305 JUMP JUMPDEST PUSH1 0x0 PUSH1 0x1 SWAP1 SLOAD SWAP1 PUSH2 0x100 EXP SWAP1 DIV PUSH20 0xFFFFFFFFFFFFFFFFFFFFFFFFFFFFFFFFFFFFFFFF AND PUSH20 0xFFFFFFFFFFFFFFFFFFFFFFFFFFFFFFFFFFFFFFFF AND CALLER PUSH20 0xFFFFFFFFFFFFFFFFFFFFFFFFFFFFFFFFFFFFFFFF AND EQ ISZERO DUP1 PUSH2 0x220 JUMPI POP PUSH1 0x1 PUSH1 0x0 DUP3 PUSH20 0xFFFFFFFFFFFFFFFFFFFFFFFFFFFFFFFFFFFFFFFF AND PUSH20 0xFFFFFFFFFFFFFFFFFFFFFFFFFFFFFFFFFFFFFFFF AND DUP2 MSTORE PUSH1 0x20 ADD SWAP1 DUP2 MSTORE PUSH1 0x20 ADD PUSH1 0x0 KECCAK256 PUSH1 0x1 ADD PUSH1 0x0 SWAP1 SLOAD SWAP1 PUSH2 0x100 EXP SWAP1 DIV PUSH1 0xFF AND JUMPDEST ISZERO PUSH2 0x22A JUMPI PUSH2 0x305 JUMP JUMPDEST PUSH1 0x1 DUP1 PUSH1 0x0 DUP4 PUSH20 0xFFFFFFFFFFFFFFFFFFFFFFFFFFFFFFFFFFFFFFFF AND PUSH20 0xFFFFFFFFFFFFFFFFFFFFFFFFFFFFFFFFFFFFFFFF AND DUP2 MSTORE PUSH1 0x20 ADD SWAP1 DUP2 MSTORE PUSH1 0x20 ADD PUSH1 0x0 KECCAK256 PUSH1 0x0 ADD DUP2 SWAP1 SSTORE POP PUSH1 0x0 PUSH1 0x1 PUSH1 0x0 DUP4 PUSH20 0xFFFFFFFFFFFFFFFFFFFFFFFFFFFFFFFFFFFFFFFF AND PUSH20 0xFFFFFFFFFFFFFFFFFFFFFFFFFFFFFFFFFFFFFFFF AND DUP2 MSTORE PUSH1 0x20 ADD SWAP1 DUP2 MSTORE PUSH1 0x20 ADD PUSH1 0x0 KECCAK256 PUSH1 0x1 ADD PUSH1 0x0 PUSH2 0x100 EXP DUP2 SLOAD DUP2 PUSH1 0xFF MUL NOT AND SWAP1 DUP4 ISZERO ISZERO MUL OR SWAP1 SSTORE POP PUSH1 0xA PUSH1 0x3 SLOAD ADD TIMESTAMP GT ISZERO PUSH2 0x304 JUMPI PUSH1 0x2 PUSH1 0x0 DUP1 PUSH2 0x100 EXP DUP2 SLOAD DUP2 PUSH1 0xFF MUL NOT AND SWAP1 DUP4 PUSH1 0x3 DUP2 GT ISZERO PUSH2 0x2F7 JUMPI INVALID JUMPDEST MUL OR SWAP1 SSTORE POP TIMESTAMP PUSH1 0x3 DUP2 SWAP1 SSTORE POP JUMPDEST JUMPDEST POP JUMP JUMPDEST PUSH1 0x0 DUP1 PUSH1 0x0 PUSH1 0x3 DUP1 DUP2 GT ISZERO PUSH2 0x319 JUMPI INVALID JUMPDEST PUSH1 0x0 DUP1 SWAP1 SLOAD SWAP1 PUSH2 0x100 EXP SWAP1 DIV PUSH1 0xFF AND PUSH1 0x3 DUP2 GT ISZERO PUSH2 0x333 JUMPI INVALID JUMPDEST EQ ISZERO ISZERO PUSH2 0x33F JUMPI PUSH2 0x3B3 JUMP JUMPDEST PUSH1 0x0 SWAP2 POP PUSH1 0x0 SWAP1 POP JUMPDEST PUSH1 0x2 DUP1 SLOAD SWAP1 POP DUP2 PUSH1 0xFF AND LT ISZERO PUSH2 0x3B2 JUMPI DUP2 PUSH1 0x2 DUP3 PUSH1 0xFF AND DUP2 SLOAD DUP2 LT ISZERO ISZERO PUSH2 0x36B JUMPI INVALID JUMPDEST SWAP1 PUSH1 0x0 MSTORE PUSH1 0x20 PUSH1 0x0 KECCAK256 ADD PUSH1 0x0 ADD SLOAD GT ISZERO PUSH2 0x3A5 JUMPI PUSH1 0x2 DUP2 PUSH1 0xFF AND DUP2 SLOAD DUP2 LT ISZERO ISZERO PUSH2 0x391 JUMPI INVALID JUMPDEST SWAP1 PUSH1 0x0 MSTORE PUSH1 0x20 PUSH1 0x0 KECCAK256 ADD PUSH1 0x0 ADD SLOAD SWAP2 POP DUP1 SWAP3 POP JUMPDEST DUP1 DUP1 PUSH1 0x1 ADD SWAP2 POP POP PUSH2 0x348 JUMP JUMPDEST JUMPDEST POP POP SWAP1 JUMP JUMPDEST PUSH1 0x0 PUSH1 0x2 PUSH1 0x3 DUP2 GT ISZERO PUSH2 0x3C7 JUMPI INVALID JUMPDEST PUSH1 0x0 DUP1 SWAP1 SLOAD SWAP1 PUSH2 0x100 EXP SWAP1 DIV PUSH1 0xFF AND PUSH1 0x3 DUP2 GT ISZERO PUSH2 0x3E1 JUMPI INVALID JUMPDEST EQ ISZERO ISZERO PUSH2 0x3ED JUMPI PUSH2 0x4FA JUMP JUMPDEST PUSH1 0x1 PUSH1 0x0 CALLER PUSH20 0xFFFFFFFFFFFFFFFFFFFFFFFFFFFFFFFFFFFFFFFF AND PUSH20 0xFFFFFFFFFFFFFFFFFFFFFFFFFFFFFFFFFFFFFFFF AND DUP2 MSTORE PUSH1 0x20 ADD SWAP1 DUP2 MSTORE PUSH1 0x20 ADD PUSH1 0x0 KECCAK256 SWAP1 POP DUP1 PUSH1 0x1 ADD PUSH1 0x0 SWAP1 SLOAD SWAP1 PUSH2 0x100 EXP SWAP1 DIV PUSH1 0xFF AND DUP1 PUSH2 0x453 JUMPI POP PUSH1 0x2 DUP1 SLOAD SWAP1 POP DUP3 PUSH1 0xFF AND LT ISZERO JUMPDEST ISZERO PUSH2 0x45D JUMPI PUSH2 0x4FA JUMP JUMPDEST PUSH1 0x1 DUP2 PUSH1 0x1 ADD PUSH1 0x0 PUSH2 0x100 EXP DUP2 SLOAD DUP2 PUSH1 0xFF MUL NOT AND SWAP1 DUP4 ISZERO ISZERO MUL OR SWAP1 SSTORE POP DUP2 DUP2 PUSH1 0x1 ADD PUSH1 0x1 PUSH2 0x100 EXP DUP2 SLOAD DUP2 PUSH1 0xFF MUL NOT AND SWAP1 DUP4 PUSH1 0xFF AND MUL OR SWAP1 SSTORE POP DUP1 PUSH1 0x0 ADD SLOAD PUSH1 0x2 DUP4 PUSH1 0xFF AND DUP2 SLOAD DUP2 LT ISZERO ISZERO PUSH2 0x4AE JUMPI INVALID JUMPDEST SWAP1 PUSH1 0x0 MSTORE PUSH1 0x20 PUSH1 0x0 KECCAK256 ADD PUSH1 0x0 ADD PUSH1 0x0 DUP3 DUP3 SLOAD ADD SWAP3 POP POP DUP2 SWAP1 SSTORE POP PUSH1 0xA PUSH1 0x3 SLOAD ADD TIMESTAMP GT ISZERO PUSH2 0x4F9 JUMPI PUSH1 0x3 PUSH1 0x0 DUP1 PUSH2 0x100 EXP DUP2 SLOAD DUP2 PUSH1 0xFF MUL NOT AND SWAP1 DUP4 PUSH1 0x3 DUP2 GT ISZERO PUSH2 0x4F3 JUMPI INVALID JUMPDEST MUL OR SWAP1 SSTORE POP JUMPDEST JUMPDEST POP POP JUMP JUMPDEST PUSH1 0x0 DUP1 SWAP1 SLOAD SWAP1 PUSH2 0x100 EXP SWAP1 DIV PUSH1 0xFF AND DUP2 JUMP STOP LOG1 PUSH6 0x627A7A723058 KECCAK256 SAR 0xe5 0x4c CODESIZE SWAP16 0xa5 0xbf PUSH15 0xD86F1A22311B7CE34FD4CB7EE5D5E6 EXTCODECOPY 0xad 0xc0 0x5f 0xdc MSIZE 0xd0 PUSH25 0xE5002900000000000000000000000000000000000000000000 "
				},
				"gasEstimates": {
					"creation": {
						"codeDepositCost": "268000",
						"executionCost": "infinite",
						"totalCost": "infinite"
					},
					"external": {
						"register(address)": "82199",
						"stage()": "528",
						"vote(uint8)": "83019",
						"winningProposal()": "infinite"
					}
				},
				"methodIdentifiers": {
					"register(address)": "4420e486",
					"stage()": "c040e6b8",
					"vote(uint8)": "b3f98adc",
					"winningProposal()": "609ff1bd"
				}
			},
			"userdoc": {
				"methods": {
					"register(address)": {
						"notice": "May only be called by $(chairperson)."
					},
					"vote(uint8)": {
						"notice": "Give a single vote to proposal $(toProposal)."
					}
				}
			}
		}
	}
}