{
	"ballotwithmodifier.sol": {
		"Ballot": {
			"abi": [
				{
					"constant": false,
					"inputs": [
						{
							"name": "toVoter",
							"type": "address"
						}
					],
					"name": "register",
					"outputs": [],
					"payable": false,
					"stateMutability": "nonpayable",
					"type": "function"
				},
				{
					"constant": true,
					"inputs": [],
					"name": "winningProposal",
					"outputs": [
						{
							"name": "_winningProposal",
							"type": "uint8"
						}
					],
					"payable": false,
					"stateMutability": "view",
					"type": "function"
				},
				{
					"constant": false,
					"inputs": [
						{
							"name": "toProposal",
							"type": "uint8"
						}
					],
					"name": "vote",
					"outputs": [],
					"payable": false,
					"stateMutability": "nonpayable",
					"type": "function"
				},
				{
					"constant": true,
					"inputs": [],
					"name": "stage",
					"outputs": [
						{
							"name": "",
							"type": "uint8"
						}
					],
					"payable": false,
					"stateMutability": "view",
					"type": "function"
				},
				{
					"inputs": [
						{
							"name": "_numProposals",
							"type": "uint8"
						}
					],
					"payable": false,
					"stateMutability": "nonpayable",
					"type": "constructor"
				},
				{
					"anonymous": false,
					"inputs": [],
					"name": "votingCompleted",
					"type": "event"
				}
			],
			"devdoc": {
				"methods": {}
			},
			"evm": {
				"assembly": "    /* \"ballotwithmodifier.sol\":25:2383  contract Ballot {\r... */\n  mstore(0x40, 0x80)\n    /* \"ballotwithmodifier.sol\":285:295  Stage.Init */\n  0x0\n    /* \"ballotwithmodifier.sol\":264:295  Stage public stage = Stage.Init */\n  dup1\n  exp(0x100, 0x0)\n  dup2\n  sload\n  dup2\n  0xff\n  mul\n  not\n  and\n  swap1\n  dup4\n  0x3\n  dup2\n  gt\n  iszero\n  tag_1\n  jumpi\n  invalid\ntag_1:\n  mul\n  or\n  swap1\n  sstore\n  pop\n    /* \"ballotwithmodifier.sol\":644:906  function Ballot(uint8 _numProposals) public  {\r... */\n  callvalue\n    /* \"--CODEGEN--\":8:17   */\n  dup1\n    /* \"--CODEGEN--\":5:7   */\n  iszero\n  tag_2\n  jumpi\n    /* \"--CODEGEN--\":30:31   */\n  0x0\n    /* \"--CODEGEN--\":27:28   */\n  dup1\n    /* \"--CODEGEN--\":20:32   */\n  revert\n    /* \"--CODEGEN--\":5:7   */\ntag_2:\n    /* \"ballotwithmodifier.sol\":644:906  function Ballot(uint8 _numProposals) public  {\r... */\n  pop\n  mload(0x40)\n  0x20\n  dup1\n  bytecodeSize\n  dup4\n  codecopy\n  dup2\n  add\n  dup1\n  0x40\n  mstore\n  dup2\n  add\n  swap1\n  dup1\n  dup1\n  mload\n  swap1\n  0x20\n  add\n  swap1\n  swap3\n  swap2\n  swap1\n  pop\n  pop\n  pop\n    /* \"ballotwithmodifier.sol\":714:724  msg.sender */\n  caller\n    /* \"ballotwithmodifier.sol\":700:711  chairperson */\n  0x0\n  0x1\n    /* \"ballotwithmodifier.sol\":700:724  chairperson = msg.sender */\n  0x100\n  exp\n  dup2\n  sload\n  dup2\n  0xffffffffffffffffffffffffffffffffffffffff\n  mul\n  not\n  and\n  swap1\n  dup4\n  0xffffffffffffffffffffffffffffffffffffffff\n  and\n  mul\n  or\n  swap1\n  sstore\n  pop\n    /* \"ballotwithmodifier.sol\":764:765  2 */\n  0x2\n    /* \"ballotwithmodifier.sol\":735:741  voters */\n  0x1\n    /* \"ballotwithmodifier.sol\":735:754  voters[chairperson] */\n  0x0\n    /* \"ballotwithmodifier.sol\":742:753  chairperson */\n  dup1\n  0x1\n  swap1\n  sload\n  swap1\n  0x100\n  exp\n  swap1\n  div\n  0xffffffffffffffffffffffffffffffffffffffff\n  and\n    /* \"ballotwithmodifier.sol\":735:754  voters[chairperson] */\n  0xffffffffffffffffffffffffffffffffffffffff\n  and\n  0xffffffffffffffffffffffffffffffffffffffff\n  and\n  dup2\n  mstore\n  0x20\n  add\n  swap1\n  dup2\n  mstore\n  0x20\n  add\n  0x0\n  keccak256\n    /* \"ballotwithmodifier.sol\":735:761  voters[chairperson].weight */\n  0x0\n  add\n    /* \"ballotwithmodifier.sol\":735:765  voters[chairperson].weight = 2 */\n  dup2\n  swap1\n  sstore\n  pop\n    /* \"ballotwithmodifier.sol\":831:844  _numProposals */\n  dup1\n    /* \"ballotwithmodifier.sol\":812:844  proposals.length = _numProposals */\n  0xff\n  and\n    /* \"ballotwithmodifier.sol\":812:821  proposals */\n  0x2\n    /* \"ballotwithmodifier.sol\":812:844  proposals.length = _numProposals */\n  dup2\n  tag_5\n  swap2\n  swap1\n  jump\t// in(tag_6)\ntag_5:\n  pop\n    /* \"ballotwithmodifier.sol\":863:872  Stage.Reg */\n  0x1\n    /* \"ballotwithmodifier.sol\":855:860  stage */\n  0x0\n  dup1\n    /* \"ballotwithmodifier.sol\":855:872  stage = Stage.Reg */\n  0x100\n  exp\n  dup2\n  sload\n  dup2\n  0xff\n  mul\n  not\n  and\n  swap1\n  dup4\n  0x3\n  dup2\n  gt\n  iszero\n  tag_7\n  jumpi\n  invalid\ntag_7:\n  mul\n  or\n  swap1\n  sstore\n  pop\n    /* \"ballotwithmodifier.sol\":895:898  now */\n  timestamp\n    /* \"ballotwithmodifier.sol\":883:892  startTime */\n  0x3\n    /* \"ballotwithmodifier.sol\":883:898  startTime = now */\n  dup2\n  swap1\n  sstore\n  pop\n    /* \"ballotwithmodifier.sol\":644:906  function Ballot(uint8 _numProposals) public  {\r... */\n  pop\n    /* \"ballotwithmodifier.sol\":25:2383  contract Ballot {\r... */\n  jump(tag_8)\ntag_6:\n  dup2\n  sload\n  dup2\n  dup4\n  sstore\n  dup2\n  dup2\n  gt\n  iszero\n  tag_9\n  jumpi\n  dup2\n  dup4\n  0x0\n  mstore\n  keccak256(0x0, 0x20)\n  swap2\n  dup3\n  add\n  swap2\n  add\n  tag_10\n  swap2\n  swap1\n  jump\t// in(tag_11)\ntag_10:\ntag_9:\n  pop\n  pop\n  pop\n  jump\t// out\ntag_11:\n  tag_12\n  swap2\n  swap1\ntag_13:\n  dup1\n  dup3\n  gt\n  iszero\n  tag_14\n  jumpi\n  0x0\n  dup1\n  dup3\n  add\n  0x0\n  swap1\n  sstore\n  pop\n  0x1\n  add\n  jump(tag_13)\ntag_14:\n  pop\n  swap1\n  jump\ntag_12:\n  swap1\n  jump\t// out\ntag_8:\n  dataSize(sub_0)\n  dup1\n  dataOffset(sub_0)\n  0x0\n  codecopy\n  0x0\n  return\nstop\n\nsub_0: assembly {\n        /* \"ballotwithmodifier.sol\":25:2383  contract Ballot {\r... */\n      mstore(0x40, 0x80)\n      jumpi(tag_1, lt(calldatasize, 0x4))\n      calldataload(0x0)\n      0x100000000000000000000000000000000000000000000000000000000\n      swap1\n      div\n      0xffffffff\n      and\n      dup1\n      0x4420e486\n      eq\n      tag_2\n      jumpi\n      dup1\n      0x609ff1bd\n      eq\n      tag_3\n      jumpi\n      dup1\n      0xb3f98adc\n      eq\n      tag_4\n      jumpi\n      dup1\n      0xc040e6b8\n      eq\n      tag_5\n      jumpi\n    tag_1:\n      0x0\n      dup1\n      revert\n        /* \"ballotwithmodifier.sol\":1020:1362  function register(address toVoter) public validStage(Stage.Reg) {\r... */\n    tag_2:\n      callvalue\n        /* \"--CODEGEN--\":8:17   */\n      dup1\n        /* \"--CODEGEN--\":5:7   */\n      iszero\n      tag_6\n      jumpi\n        /* \"--CODEGEN--\":30:31   */\n      0x0\n        /* \"--CODEGEN--\":27:28   */\n      dup1\n        /* \"--CODEGEN--\":20:32   */\n      revert\n        /* \"--CODEGEN--\":5:7   */\n    tag_6:\n        /* \"ballotwithmodifier.sol\":1020:1362  function register(address toVoter) public validStage(Stage.Reg) {\r... */\n      pop\n      tag_7\n      0x4\n      dup1\n      calldatasize\n      sub\n      dup2\n      add\n      swap1\n      dup1\n      dup1\n      calldataload\n      0xffffffffffffffffffffffffffffffffffffffff\n      and\n      swap1\n      0x20\n      add\n      swap1\n      swap3\n      swap2\n      swap1\n      pop\n      pop\n      pop\n      jump(tag_8)\n    tag_7:\n      stop\n        /* \"ballotwithmodifier.sol\":1901:2380  function winningProposal() public validStage(Stage.Done) constant returns (uint8 _winningProposal) {\r... */\n    tag_3:\n      callvalue\n        /* \"--CODEGEN--\":8:17   */\n      dup1\n        /* \"--CODEGEN--\":5:7   */\n      iszero\n      tag_9\n      jumpi\n        /* \"--CODEGEN--\":30:31   */\n      0x0\n        /* \"--CODEGEN--\":27:28   */\n      dup1\n        /* \"--CODEGEN--\":20:32   */\n      revert\n        /* \"--CODEGEN--\":5:7   */\n    tag_9:\n        /* \"ballotwithmodifier.sol\":1901:2380  function winningProposal() public validStage(Stage.Done) constant returns (uint8 _winningProposal) {\r... */\n      pop\n      tag_10\n      jump(tag_11)\n    tag_10:\n      mload(0x40)\n      dup1\n      dup3\n      0xff\n      and\n      0xff\n      and\n      dup2\n      mstore\n      0x20\n      add\n      swap2\n      pop\n      pop\n      mload(0x40)\n      dup1\n      swap2\n      sub\n      swap1\n      return\n        /* \"ballotwithmodifier.sol\":1425:1893  function vote(uint8 toProposal) public validStage(Stage.Vote)  {\r... */\n    tag_4:\n      callvalue\n        /* \"--CODEGEN--\":8:17   */\n      dup1\n        /* \"--CODEGEN--\":5:7   */\n      iszero\n      tag_12\n      jumpi\n        /* \"--CODEGEN--\":30:31   */\n      0x0\n        /* \"--CODEGEN--\":27:28   */\n      dup1\n        /* \"--CODEGEN--\":20:32   */\n      revert\n        /* \"--CODEGEN--\":5:7   */\n    tag_12:\n        /* \"ballotwithmodifier.sol\":1425:1893  function vote(uint8 toProposal) public validStage(Stage.Vote)  {\r... */\n      pop\n      tag_13\n      0x4\n      dup1\n      calldatasize\n      sub\n      dup2\n      add\n      swap1\n      dup1\n      dup1\n      calldataload\n      0xff\n      and\n      swap1\n      0x20\n      add\n      swap1\n      swap3\n      swap2\n      swap1\n      pop\n      pop\n      pop\n      jump(tag_14)\n    tag_13:\n      stop\n        /* \"ballotwithmodifier.sol\":264:295  Stage public stage = Stage.Init */\n    tag_5:\n      callvalue\n        /* \"--CODEGEN--\":8:17   */\n      dup1\n        /* \"--CODEGEN--\":5:7   */\n      iszero\n      tag_15\n      jumpi\n        /* \"--CODEGEN--\":30:31   */\n      0x0\n        /* \"--CODEGEN--\":27:28   */\n      dup1\n        /* \"--CODEGEN--\":20:32   */\n      revert\n        /* \"--CODEGEN--\":5:7   */\n    tag_15:\n        /* \"ballotwithmodifier.sol\":264:295  Stage public stage = Stage.Init */\n      pop\n      tag_16\n      jump(tag_17)\n    tag_16:\n      mload(0x40)\n      dup1\n      dup3\n      0x3\n      dup2\n      gt\n      iszero\n      tag_18\n      jumpi\n      invalid\n    tag_18:\n      0xff\n      and\n      dup2\n      mstore\n      0x20\n      add\n      swap2\n      pop\n      pop\n      mload(0x40)\n      dup1\n      swap2\n      sub\n      swap1\n      return\n        /* \"ballotwithmodifier.sol\":1020:1362  function register(address toVoter) public validStage(Stage.Reg) {\r... */\n    tag_8:\n        /* \"ballotwithmodifier.sol\":1073:1082  Stage.Reg */\n      0x1\n        /* \"ballotwithmodifier.sol\":535:543  reqStage */\n      dup1\n        /* \"ballotwithmodifier.sol\":526:543  stage == reqStage */\n      0x3\n      dup2\n      gt\n      iszero\n      tag_20\n      jumpi\n      invalid\n    tag_20:\n        /* \"ballotwithmodifier.sol\":526:531  stage */\n      0x0\n      dup1\n      swap1\n      sload\n      swap1\n      0x100\n      exp\n      swap1\n      div\n      0xff\n      and\n        /* \"ballotwithmodifier.sol\":526:543  stage == reqStage */\n      0x3\n      dup2\n      gt\n      iszero\n      tag_21\n      jumpi\n      invalid\n    tag_21:\n      eq\n        /* \"ballotwithmodifier.sol\":518:544  require(stage == reqStage) */\n      iszero\n      iszero\n      tag_22\n      jumpi\n      0x0\n      dup1\n      revert\n    tag_22:\n        /* \"ballotwithmodifier.sol\":1158:1169  chairperson */\n      0x0\n      0x1\n      swap1\n      sload\n      swap1\n      0x100\n      exp\n      swap1\n      div\n      0xffffffffffffffffffffffffffffffffffffffff\n      and\n        /* \"ballotwithmodifier.sol\":1144:1169  msg.sender != chairperson */\n      0xffffffffffffffffffffffffffffffffffffffff\n      and\n        /* \"ballotwithmodifier.sol\":1144:1154  msg.sender */\n      caller\n        /* \"ballotwithmodifier.sol\":1144:1169  msg.sender != chairperson */\n      0xffffffffffffffffffffffffffffffffffffffff\n      and\n      eq\n      iszero\n        /* \"ballotwithmodifier.sol\":1144:1194  msg.sender != chairperson || voters[toVoter].voted */\n      dup1\n      tag_24\n      jumpi\n      pop\n        /* \"ballotwithmodifier.sol\":1173:1179  voters */\n      0x1\n        /* \"ballotwithmodifier.sol\":1173:1188  voters[toVoter] */\n      0x0\n        /* \"ballotwithmodifier.sol\":1180:1187  toVoter */\n      dup4\n        /* \"ballotwithmodifier.sol\":1173:1188  voters[toVoter] */\n      0xffffffffffffffffffffffffffffffffffffffff\n      and\n      0xffffffffffffffffffffffffffffffffffffffff\n      and\n      dup2\n      mstore\n      0x20\n      add\n      swap1\n      dup2\n      mstore\n      0x20\n      add\n      0x0\n      keccak256\n        /* \"ballotwithmodifier.sol\":1173:1194  voters[toVoter].voted */\n      0x1\n      add\n      0x0\n      swap1\n      sload\n      swap1\n      0x100\n      exp\n      swap1\n      div\n      0xff\n      and\n        /* \"ballotwithmodifier.sol\":1144:1194  msg.sender != chairperson || voters[toVoter].voted */\n    tag_24:\n        /* \"ballotwithmodifier.sol\":1140:1203  if (msg.sender != chairperson || voters[toVoter].voted) return; */\n      iszero\n      tag_25\n      jumpi\n        /* \"ballotwithmodifier.sol\":1196:1203  return; */\n      jump(tag_23)\n        /* \"ballotwithmodifier.sol\":1140:1203  if (msg.sender != chairperson || voters[toVoter].voted) return; */\n    tag_25:\n        /* \"ballotwithmodifier.sol\":1238:1239  1 */\n      0x1\n        /* \"ballotwithmodifier.sol\":1213:1219  voters */\n      dup1\n        /* \"ballotwithmodifier.sol\":1213:1228  voters[toVoter] */\n      0x0\n        /* \"ballotwithmodifier.sol\":1220:1227  toVoter */\n      dup5\n        /* \"ballotwithmodifier.sol\":1213:1228  voters[toVoter] */\n      0xffffffffffffffffffffffffffffffffffffffff\n      and\n      0xffffffffffffffffffffffffffffffffffffffff\n      and\n      dup2\n      mstore\n      0x20\n      add\n      swap1\n      dup2\n      mstore\n      0x20\n      add\n      0x0\n      keccak256\n        /* \"ballotwithmodifier.sol\":1213:1235  voters[toVoter].weight */\n      0x0\n      add\n        /* \"ballotwithmodifier.sol\":1213:1239  voters[toVoter].weight = 1 */\n      dup2\n      swap1\n      sstore\n      pop\n        /* \"ballotwithmodifier.sol\":1274:1279  false */\n      0x0\n        /* \"ballotwithmodifier.sol\":1250:1256  voters */\n      0x1\n        /* \"ballotwithmodifier.sol\":1250:1265  voters[toVoter] */\n      0x0\n        /* \"ballotwithmodifier.sol\":1257:1264  toVoter */\n      dup5\n        /* \"ballotwithmodifier.sol\":1250:1265  voters[toVoter] */\n      0xffffffffffffffffffffffffffffffffffffffff\n      and\n      0xffffffffffffffffffffffffffffffffffffffff\n      and\n      dup2\n      mstore\n      0x20\n      add\n      swap1\n      dup2\n      mstore\n      0x20\n      add\n      0x0\n      keccak256\n        /* \"ballotwithmodifier.sol\":1250:1271  voters[toVoter].voted */\n      0x1\n      add\n      0x0\n        /* \"ballotwithmodifier.sol\":1250:1279  voters[toVoter].voted = false */\n      0x100\n      exp\n      dup2\n      sload\n      dup2\n      0xff\n      mul\n      not\n      and\n      swap1\n      dup4\n      iszero\n      iszero\n      mul\n      or\n      swap1\n      sstore\n      pop\n        /* \"ballotwithmodifier.sol\":1312:1322  30 seconds */\n      0x1e\n        /* \"ballotwithmodifier.sol\":1301:1310  startTime */\n      sload(0x3)\n        /* \"ballotwithmodifier.sol\":1301:1322  startTime+ 30 seconds */\n      add\n        /* \"ballotwithmodifier.sol\":1294:1297  now */\n      timestamp\n        /* \"ballotwithmodifier.sol\":1294:1323  now > (startTime+ 30 seconds) */\n      gt\n        /* \"ballotwithmodifier.sol\":1290:1347  if (now > (startTime+ 30 seconds)) {stage = Stage.Vote; } */\n      iszero\n      tag_26\n      jumpi\n        /* \"ballotwithmodifier.sol\":1334:1344  Stage.Vote */\n      0x2\n        /* \"ballotwithmodifier.sol\":1326:1331  stage */\n      0x0\n      dup1\n        /* \"ballotwithmodifier.sol\":1326:1344  stage = Stage.Vote */\n      0x100\n      exp\n      dup2\n      sload\n      dup2\n      0xff\n      mul\n      not\n      and\n      swap1\n      dup4\n      0x3\n      dup2\n      gt\n      iszero\n      tag_27\n      jumpi\n      invalid\n    tag_27:\n      mul\n      or\n      swap1\n      sstore\n      pop\n        /* \"ballotwithmodifier.sol\":1290:1347  if (now > (startTime+ 30 seconds)) {stage = Stage.Vote; } */\n    tag_26:\n        /* \"ballotwithmodifier.sol\":553:554  _ */\n    tag_23:\n        /* \"ballotwithmodifier.sol\":1020:1362  function register(address toVoter) public validStage(Stage.Reg) {\r... */\n      pop\n      pop\n      jump\t// out\n        /* \"ballotwithmodifier.sol\":1901:2380  function winningProposal() public validStage(Stage.Done) constant returns (uint8 _winningProposal) {\r... */\n    tag_11:\n        /* \"ballotwithmodifier.sol\":1976:1998  uint8 _winningProposal */\n      0x0\n        /* \"ballotwithmodifier.sol\":2055:2079  uint256 winningVoteCount */\n      dup1\n        /* \"ballotwithmodifier.sol\":2099:2109  uint8 prop */\n      0x0\n        /* \"ballotwithmodifier.sol\":1946:1956  Stage.Done */\n      0x3\n        /* \"ballotwithmodifier.sol\":535:543  reqStage */\n      dup1\n        /* \"ballotwithmodifier.sol\":526:543  stage == reqStage */\n      0x3\n      dup2\n      gt\n      iszero\n      tag_29\n      jumpi\n      invalid\n    tag_29:\n        /* \"ballotwithmodifier.sol\":526:531  stage */\n      0x0\n      dup1\n      swap1\n      sload\n      swap1\n      0x100\n      exp\n      swap1\n      div\n      0xff\n      and\n        /* \"ballotwithmodifier.sol\":526:543  stage == reqStage */\n      0x3\n      dup2\n      gt\n      iszero\n      tag_30\n      jumpi\n      invalid\n    tag_30:\n      eq\n        /* \"ballotwithmodifier.sol\":518:544  require(stage == reqStage) */\n      iszero\n      iszero\n      tag_31\n      jumpi\n      0x0\n      dup1\n      revert\n    tag_31:\n        /* \"ballotwithmodifier.sol\":2082:2083  0 */\n      0x0\n        /* \"ballotwithmodifier.sol\":2055:2083  uint256 winningVoteCount = 0 */\n      swap3\n      pop\n        /* \"ballotwithmodifier.sol\":2112:2113  0 */\n      0x0\n        /* \"ballotwithmodifier.sol\":2099:2113  uint8 prop = 0 */\n      swap2\n      pop\n        /* \"ballotwithmodifier.sol\":2094:2332  for (uint8 prop = 0; prop < proposals.length; prop++)\r... */\n    tag_33:\n        /* \"ballotwithmodifier.sol\":2122:2131  proposals */\n      0x2\n        /* \"ballotwithmodifier.sol\":2122:2138  proposals.length */\n      dup1\n      sload\n      swap1\n      pop\n        /* \"ballotwithmodifier.sol\":2115:2119  prop */\n      dup3\n        /* \"ballotwithmodifier.sol\":2115:2138  prop < proposals.length */\n      0xff\n      and\n      lt\n        /* \"ballotwithmodifier.sol\":2094:2332  for (uint8 prop = 0; prop < proposals.length; prop++)\r... */\n      iszero\n      tag_34\n      jumpi\n        /* \"ballotwithmodifier.sol\":2193:2209  winningVoteCount */\n      dup3\n        /* \"ballotwithmodifier.sol\":2165:2174  proposals */\n      0x2\n        /* \"ballotwithmodifier.sol\":2175:2179  prop */\n      dup4\n        /* \"ballotwithmodifier.sol\":2165:2180  proposals[prop] */\n      0xff\n      and\n      dup2\n      sload\n      dup2\n      lt\n      iszero\n      iszero\n      tag_36\n      jumpi\n      invalid\n    tag_36:\n      swap1\n      0x0\n      mstore\n      keccak256(0x0, 0x20)\n      add\n        /* \"ballotwithmodifier.sol\":2165:2190  proposals[prop].voteCount */\n      0x0\n      add\n      sload\n        /* \"ballotwithmodifier.sol\":2165:2209  proposals[prop].voteCount > winningVoteCount */\n      gt\n        /* \"ballotwithmodifier.sol\":2161:2332  if (proposals[prop].voteCount > winningVoteCount) {\r... */\n      iszero\n      tag_38\n      jumpi\n        /* \"ballotwithmodifier.sol\":2249:2258  proposals */\n      0x2\n        /* \"ballotwithmodifier.sol\":2259:2263  prop */\n      dup3\n        /* \"ballotwithmodifier.sol\":2249:2264  proposals[prop] */\n      0xff\n      and\n      dup2\n      sload\n      dup2\n      lt\n      iszero\n      iszero\n      tag_39\n      jumpi\n      invalid\n    tag_39:\n      swap1\n      0x0\n      mstore\n      keccak256(0x0, 0x20)\n      add\n        /* \"ballotwithmodifier.sol\":2249:2274  proposals[prop].voteCount */\n      0x0\n      add\n      sload\n        /* \"ballotwithmodifier.sol\":2230:2274  winningVoteCount = proposals[prop].voteCount */\n      swap3\n      pop\n        /* \"ballotwithmodifier.sol\":2312:2316  prop */\n      dup2\n        /* \"ballotwithmodifier.sol\":2293:2316  _winningProposal = prop */\n      swap4\n      pop\n        /* \"ballotwithmodifier.sol\":2161:2332  if (proposals[prop].voteCount > winningVoteCount) {\r... */\n    tag_38:\n        /* \"ballotwithmodifier.sol\":2140:2146  prop++ */\n      dup2\n      dup1\n      0x1\n      add\n      swap3\n      pop\n      pop\n        /* \"ballotwithmodifier.sol\":2094:2332  for (uint8 prop = 0; prop < proposals.length; prop++)\r... */\n      jump(tag_33)\n    tag_34:\n        /* \"ballotwithmodifier.sol\":2368:2369  0 */\n      0x0\n        /* \"ballotwithmodifier.sol\":2349:2365  winningVoteCount */\n      dup4\n        /* \"ballotwithmodifier.sol\":2349:2369  winningVoteCount > 0 */\n      gt\n        /* \"ballotwithmodifier.sol\":2341:2370  assert (winningVoteCount > 0) */\n      iszero\n      iszero\n      tag_41\n      jumpi\n      invalid\n    tag_41:\n        /* \"ballotwithmodifier.sol\":1901:2380  function winningProposal() public validStage(Stage.Done) constant returns (uint8 _winningProposal) {\r... */\n      pop\n      pop\n      pop\n      swap1\n      jump\t// out\n        /* \"ballotwithmodifier.sol\":1425:1893  function vote(uint8 toProposal) public validStage(Stage.Vote)  {\r... */\n    tag_14:\n        /* \"ballotwithmodifier.sol\":1545:1565  Voter storage sender */\n      0x0\n        /* \"ballotwithmodifier.sol\":1475:1485  Stage.Vote */\n      0x2\n        /* \"ballotwithmodifier.sol\":535:543  reqStage */\n      dup1\n        /* \"ballotwithmodifier.sol\":526:543  stage == reqStage */\n      0x3\n      dup2\n      gt\n      iszero\n      tag_43\n      jumpi\n      invalid\n    tag_43:\n        /* \"ballotwithmodifier.sol\":526:531  stage */\n      0x0\n      dup1\n      swap1\n      sload\n      swap1\n      0x100\n      exp\n      swap1\n      div\n      0xff\n      and\n        /* \"ballotwithmodifier.sol\":526:543  stage == reqStage */\n      0x3\n      dup2\n      gt\n      iszero\n      tag_44\n      jumpi\n      invalid\n    tag_44:\n      eq\n        /* \"ballotwithmodifier.sol\":518:544  require(stage == reqStage) */\n      iszero\n      iszero\n      tag_45\n      jumpi\n      0x0\n      dup1\n      revert\n    tag_45:\n        /* \"ballotwithmodifier.sol\":1568:1574  voters */\n      0x1\n        /* \"ballotwithmodifier.sol\":1568:1586  voters[msg.sender] */\n      0x0\n        /* \"ballotwithmodifier.sol\":1575:1585  msg.sender */\n      caller\n        /* \"ballotwithmodifier.sol\":1568:1586  voters[msg.sender] */\n      0xffffffffffffffffffffffffffffffffffffffff\n      and\n      0xffffffffffffffffffffffffffffffffffffffff\n      and\n      dup2\n      mstore\n      0x20\n      add\n      swap1\n      dup2\n      mstore\n      0x20\n      add\n      0x0\n      keccak256\n        /* \"ballotwithmodifier.sol\":1545:1586  Voter storage sender = voters[msg.sender] */\n      swap2\n      pop\n        /* \"ballotwithmodifier.sol\":1601:1607  sender */\n      dup2\n        /* \"ballotwithmodifier.sol\":1601:1613  sender.voted */\n      0x1\n      add\n      0x0\n      swap1\n      sload\n      swap1\n      0x100\n      exp\n      swap1\n      div\n      0xff\n      and\n        /* \"ballotwithmodifier.sol\":1601:1647  sender.voted || toProposal >= proposals.length */\n      dup1\n      tag_47\n      jumpi\n      pop\n        /* \"ballotwithmodifier.sol\":1631:1640  proposals */\n      0x2\n        /* \"ballotwithmodifier.sol\":1631:1647  proposals.length */\n      dup1\n      sload\n      swap1\n      pop\n        /* \"ballotwithmodifier.sol\":1617:1627  toProposal */\n      dup4\n        /* \"ballotwithmodifier.sol\":1617:1647  toProposal >= proposals.length */\n      0xff\n      and\n      lt\n      iszero\n        /* \"ballotwithmodifier.sol\":1601:1647  sender.voted || toProposal >= proposals.length */\n    tag_47:\n        /* \"ballotwithmodifier.sol\":1597:1656  if (sender.voted || toProposal >= proposals.length) return; */\n      iszero\n      tag_48\n      jumpi\n        /* \"ballotwithmodifier.sol\":1649:1656  return; */\n      jump(tag_46)\n        /* \"ballotwithmodifier.sol\":1597:1656  if (sender.voted || toProposal >= proposals.length) return; */\n    tag_48:\n        /* \"ballotwithmodifier.sol\":1681:1685  true */\n      0x1\n        /* \"ballotwithmodifier.sol\":1666:1672  sender */\n      dup3\n        /* \"ballotwithmodifier.sol\":1666:1678  sender.voted */\n      0x1\n      add\n      0x0\n        /* \"ballotwithmodifier.sol\":1666:1685  sender.voted = true */\n      0x100\n      exp\n      dup2\n      sload\n      dup2\n      0xff\n      mul\n      not\n      and\n      swap1\n      dup4\n      iszero\n      iszero\n      mul\n      or\n      swap1\n      sstore\n      pop\n        /* \"ballotwithmodifier.sol\":1710:1720  toProposal */\n      dup3\n        /* \"ballotwithmodifier.sol\":1696:1702  sender */\n      dup3\n        /* \"ballotwithmodifier.sol\":1696:1707  sender.vote */\n      0x1\n      add\n      0x1\n        /* \"ballotwithmodifier.sol\":1696:1720  sender.vote = toProposal */\n      0x100\n      exp\n      dup2\n      sload\n      dup2\n      0xff\n      mul\n      not\n      and\n      swap1\n      dup4\n      0xff\n      and\n      mul\n      or\n      swap1\n      sstore\n      pop\n        /* \"ballotwithmodifier.sol\":1769:1775  sender */\n      dup2\n        /* \"ballotwithmodifier.sol\":1769:1782  sender.weight */\n      0x0\n      add\n      sload\n        /* \"ballotwithmodifier.sol\":1734:1743  proposals */\n      0x2\n        /* \"ballotwithmodifier.sol\":1744:1754  toProposal */\n      dup5\n        /* \"ballotwithmodifier.sol\":1734:1755  proposals[toProposal] */\n      0xff\n      and\n      dup2\n      sload\n      dup2\n      lt\n      iszero\n      iszero\n      tag_49\n      jumpi\n      invalid\n    tag_49:\n      swap1\n      0x0\n      mstore\n      keccak256(0x0, 0x20)\n      add\n        /* \"ballotwithmodifier.sol\":1734:1765  proposals[toProposal].voteCount */\n      0x0\n      add\n      0x0\n        /* \"ballotwithmodifier.sol\":1734:1782  proposals[toProposal].voteCount += sender.weight */\n      dup3\n      dup3\n      sload\n      add\n      swap3\n      pop\n      pop\n      dup2\n      swap1\n      sstore\n      pop\n        /* \"ballotwithmodifier.sol\":1815:1825  30 seconds */\n      0x1e\n        /* \"ballotwithmodifier.sol\":1804:1813  startTime */\n      sload(0x3)\n        /* \"ballotwithmodifier.sol\":1804:1825  startTime+ 30 seconds */\n      add\n        /* \"ballotwithmodifier.sol\":1797:1800  now */\n      timestamp\n        /* \"ballotwithmodifier.sol\":1797:1826  now > (startTime+ 30 seconds) */\n      gt\n        /* \"ballotwithmodifier.sol\":1793:1868  if (now > (startTime+ 30 seconds)) {stage = Stage.Done; votingCompleted();} */\n      iszero\n      tag_51\n      jumpi\n        /* \"ballotwithmodifier.sol\":1837:1847  Stage.Done */\n      0x3\n        /* \"ballotwithmodifier.sol\":1829:1834  stage */\n      0x0\n      dup1\n        /* \"ballotwithmodifier.sol\":1829:1847  stage = Stage.Done */\n      0x100\n      exp\n      dup2\n      sload\n      dup2\n      0xff\n      mul\n      not\n      and\n      swap1\n      dup4\n      0x3\n      dup2\n      gt\n      iszero\n      tag_52\n      jumpi\n      invalid\n    tag_52:\n      mul\n      or\n      swap1\n      sstore\n      pop\n        /* \"ballotwithmodifier.sol\":1849:1866  votingCompleted() */\n      0x6ac0c89219f0135e3a87cecdf1851abced71da933a0a00e1eada0ef035382351\n      mload(0x40)\n      mload(0x40)\n      dup1\n      swap2\n      sub\n      swap1\n      log1\n        /* \"ballotwithmodifier.sol\":1793:1868  if (now > (startTime+ 30 seconds)) {stage = Stage.Done; votingCompleted();} */\n    tag_51:\n        /* \"ballotwithmodifier.sol\":553:554  _ */\n    tag_46:\n        /* \"ballotwithmodifier.sol\":1425:1893  function vote(uint8 toProposal) public validStage(Stage.Vote)  {\r... */\n      pop\n      pop\n      pop\n      jump\t// out\n        /* \"ballotwithmodifier.sol\":264:295  Stage public stage = Stage.Init */\n    tag_17:\n      0x0\n      dup1\n      swap1\n      sload\n      swap1\n      0x100\n      exp\n      swap1\n      div\n      0xff\n      and\n      dup2\n      jump\t// out\n\n    auxdata: 0xa165627a7a72305820ad262686ba06b2b1930dd8f18cbb175c477396f70abc65cc5eedc07bd53cf6710029\n}\n",
				"bytecode": {
					"linkReferences": {},
					"object": "608060405260008060006101000a81548160ff0219169083600381111561002257fe5b021790555034801561003357600080fd5b506040516020806107178339810180604052810190808051906020019092919050505033600060016101000a81548173ffffffffffffffffffffffffffffffffffffffff021916908373ffffffffffffffffffffffffffffffffffffffff1602179055506002600160008060019054906101000a900473ffffffffffffffffffffffffffffffffffffffff1673ffffffffffffffffffffffffffffffffffffffff1673ffffffffffffffffffffffffffffffffffffffff168152602001908152602001600020600001819055508060ff166002816101119190610142565b5060016000806101000a81548160ff0219169083600381111561013057fe5b02179055504260038190555050610195565b81548183558181111561016957818360005260206000209182019101610168919061016e565b5b505050565b61019291905b8082111561018e5760008082016000905550600101610174565b5090565b90565b610573806101a46000396000f300608060405260043610610062576000357c0100000000000000000000000000000000000000000000000000000000900463ffffffff1680634420e48614610067578063609ff1bd146100aa578063b3f98adc146100db578063c040e6b81461010b575b600080fd5b34801561007357600080fd5b506100a8600480360381019080803573ffffffffffffffffffffffffffffffffffffffff169060200190929190505050610144565b005b3480156100b657600080fd5b506100bf610303565b604051808260ff1660ff16815260200191505060405180910390f35b3480156100e757600080fd5b50610109600480360381019080803560ff1690602001909291905050506103c1565b005b34801561011757600080fd5b50610120610535565b6040518082600381111561013057fe5b60ff16815260200191505060405180910390f35b600180600381111561015257fe5b6000809054906101000a900460ff16600381111561016c57fe5b14151561017857600080fd5b600060019054906101000a900473ffffffffffffffffffffffffffffffffffffffff1673ffffffffffffffffffffffffffffffffffffffff163373ffffffffffffffffffffffffffffffffffffffff161415806102215750600160008373ffffffffffffffffffffffffffffffffffffffff1673ffffffffffffffffffffffffffffffffffffffff16815260200190815260200160002060010160009054906101000a900460ff165b1561022b576102ff565b60018060008473ffffffffffffffffffffffffffffffffffffffff1673ffffffffffffffffffffffffffffffffffffffff168152602001908152602001600020600001819055506000600160008473ffffffffffffffffffffffffffffffffffffffff1673ffffffffffffffffffffffffffffffffffffffff16815260200190815260200160002060010160006101000a81548160ff021916908315150217905550601e600354014211156102fe5760026000806101000a81548160ff021916908360038111156102f857fe5b02179055505b5b5050565b6000806000600380600381111561031657fe5b6000809054906101000a900460ff16600381111561033057fe5b14151561033c57600080fd5b60009250600091505b6002805490508260ff1610156103af578260028360ff1681548110151561036857fe5b906000526020600020016000015411156103a25760028260ff1681548110151561038e57fe5b906000526020600020016000015492508193505b8180600101925050610345565b6000831115156103bb57fe5b50505090565b600060028060038111156103d157fe5b6000809054906101000a900460ff1660038111156103eb57fe5b1415156103f757600080fd5b600160003373ffffffffffffffffffffffffffffffffffffffff1673ffffffffffffffffffffffffffffffffffffffff16815260200190815260200160002091508160010160009054906101000a900460ff168061045d57506002805490508360ff1610155b1561046757610530565b60018260010160006101000a81548160ff021916908315150217905550828260010160016101000a81548160ff021916908360ff160217905550816000015460028460ff168154811015156104b857fe5b9060005260206000200160000160008282540192505081905550601e6003540142111561052f5760036000806101000a81548160ff021916908360038111156104fd57fe5b02179055507f6ac0c89219f0135e3a87cecdf1851abced71da933a0a00e1eada0ef03538235160405160405180910390a15b5b505050565b6000809054906101000a900460ff16815600a165627a7a72305820ad262686ba06b2b1930dd8f18cbb175c477396f70abc65cc5eedc07bd53cf6710029",
					"opcodes": "PUSH1 0x80 PUSH1 0x40 MSTORE PUSH1 0x0 DUP1 PUSH1 0x0 PUSH2 0x100 EXP DUP2 SLOAD DUP2 PUSH1 0xFF MUL NOT AND SWAP1 DUP4 PUSH1 0x3 DUP2 GT ISZERO PUSH2 0x22 JUMPI INVALID JUMPDEST MUL OR SWAP1 SSTORE POP CALLVALUE DUP1 ISZERO PUSH2 0x33 JUMPI PUSH1 0x0 DUP1 REVERT JUMPDEST POP PUSH1 0x40 MLOAD PUSH1 0x20 DUP1 PUSH2 0x717 DUP4 CODECOPY DUP2 ADD DUP1 PUSH1 0x40 MSTORE DUP2 ADD SWAP1 DUP1 DUP1 MLOAD SWAP1 PUSH1 0x20 ADD SWAP1 SWAP3 SWAP2 SWAP1 POP POP POP CALLER PUSH1 0x0 PUSH1 0x1 PUSH2 0x100 EXP DUP2 SLOAD DUP2 PUSH20 0xFFFFFFFFFFFFFFFFFFFFFFFFFFFFFFFFFFFFFFFF MUL NOT AND SWAP1 DUP4 PUSH20 0xFFFFFFFFFFFFFFFFFFFFFFFFFFFFFFFFFFFFFFFF AND MUL OR SWAP1 SSTORE POP PUSH1 0x2 PUSH1 0x1 PUSH1 0x0 DUP1 PUSH1 0x1 SWAP1 SLOAD SWAP1 PUSH2 0x100 EXP SWAP1 DIV PUSH20 0xFFFFFFFFFFFFFFFFFFFFFFFFFFFFFFFFFFFFFFFF AND PUSH20 0xFFFFFFFFFFFFFFFFFFFFFFFFFFFFFFFFFFFFFFFF AND PUSH20 0xFFFFFFFFFFFFFFFFFFFFFFFFFFFFFFFFFFFFFFFF AND DUP2 MSTORE PUSH1 0x20 ADD SWAP1 DUP2 MSTORE PUSH1 0x20 ADD PUSH1 0x0 KECCAK256 PUSH1 0x0 ADD DUP2 SWAP1 SSTORE POP DUP1 PUSH1 0xFF AND PUSH1 0x2 DUP2 PUSH2 0x111 SWAP2 SWAP1 PUSH2 0x142 JUMP JUMPDEST POP PUSH1 0x1 PUSH1 0x0 DUP1 PUSH2 0x100 EXP DUP2 SLOAD DUP2 PUSH1 0xFF MUL NOT AND SWAP1 DUP4 PUSH1 0x3 DUP2 GT ISZERO PUSH2 0x130 JUMPI INVALID JUMPDEST MUL OR SWAP1 SSTORE POP TIMESTAMP PUSH1 0x3 DUP2 SWAP1 SSTORE POP POP PUSH2 0x195 JUMP JUMPDEST DUP2 SLOAD DUP2 DUP4 SSTORE DUP2 DUP2 GT ISZERO PUSH2 0x169 JUMPI DUP2 DUP4 PUSH1 0x0 MSTORE PUSH1 0x20 PUSH1 0x0 KECCAK256 SWAP2 DUP3 ADD SWAP2 ADD PUSH2 0x168 SWAP2 SWAP1 PUSH2 0x16E JUMP JUMPDEST JUMPDEST POP POP POP JUMP JUMPDEST PUSH2 0x192 SWAP2 SWAP1 JUMPDEST DUP1 DUP3 GT ISZERO PUSH2 0x18E JUMPI PUSH1 0x0 DUP1 DUP3 ADD PUSH1 0x0 SWAP1 SSTORE POP PUSH1 0x1 ADD PUSH2 0x174 JUMP JUMPDEST POP SWAP1 JUMP JUMPDEST SWAP1 JUMP JUMPDEST PUSH2 0x573 DUP1 PUSH2 0x1A4 PUSH1 0x0 CODECOPY PUSH1 0x0 RETURN STOP PUSH1 0x80 PUSH1 0x40 MSTORE PUSH1 0x4 CALLDATASIZE LT PUSH2 0x62 JUMPI PUSH1 0x0 CALLDATALOAD PUSH29 0x100000000000000000000000000000000000000000000000000000000 SWAP1 DIV PUSH4 0xFFFFFFFF AND DUP1 PUSH4 0x4420E486 EQ PUSH2 0x67 JUMPI DUP1 PUSH4 0x609FF1BD EQ PUSH2 0xAA JUMPI DUP1 PUSH4 0xB3F98ADC EQ PUSH2 0xDB JUMPI DUP1 PUSH4 0xC040E6B8 EQ PUSH2 0x10B JUMPI JUMPDEST PUSH1 0x0 DUP1 REVERT JUMPDEST CALLVALUE DUP1 ISZERO PUSH2 0x73 JUMPI PUSH1 0x0 DUP1 REVERT JUMPDEST POP PUSH2 0xA8 PUSH1 0x4 DUP1 CALLDATASIZE SUB DUP2 ADD SWAP1 DUP1 DUP1 CALLDATALOAD PUSH20 0xFFFFFFFFFFFFFFFFFFFFFFFFFFFFFFFFFFFFFFFF AND SWAP1 PUSH1 0x20 ADD SWAP1 SWAP3 SWAP2 SWAP1 POP POP POP PUSH2 0x144 JUMP JUMPDEST STOP JUMPDEST CALLVALUE DUP1 ISZERO PUSH2 0xB6 JUMPI PUSH1 0x0 DUP1 REVERT JUMPDEST POP PUSH2 0xBF PUSH2 0x303 JUMP JUMPDEST PUSH1 0x40 MLOAD DUP1 DUP3 PUSH1 0xFF AND PUSH1 0xFF AND DUP2 MSTORE PUSH1 0x20 ADD SWAP2 POP POP PUSH1 0x40 MLOAD DUP1 SWAP2 SUB SWAP1 RETURN JUMPDEST CALLVALUE DUP1 ISZERO PUSH2 0xE7 JUMPI PUSH1 0x0 DUP1 REVERT JUMPDEST POP PUSH2 0x109 PUSH1 0x4 DUP1 CALLDATASIZE SUB DUP2 ADD SWAP1 DUP1 DUP1 CALLDATALOAD PUSH1 0xFF AND SWAP1 PUSH1 0x20 ADD SWAP1 SWAP3 SWAP2 SWAP1 POP POP POP PUSH2 0x3C1 JUMP JUMPDEST STOP JUMPDEST CALLVALUE DUP1 ISZERO PUSH2 0x117 JUMPI PUSH1 0x0 DUP1 REVERT JUMPDEST POP PUSH2 0x120 PUSH2 0x535 JUMP JUMPDEST PUSH1 0x40 MLOAD DUP1 DUP3 PUSH1 0x3 DUP2 GT ISZERO PUSH2 0x130 JUMPI INVALID JUMPDEST PUSH1 0xFF AND DUP2 MSTORE PUSH1 0x20 ADD SWAP2 POP POP PUSH1 0x40 MLOAD DUP1 SWAP2 SUB SWAP1 RETURN JUMPDEST PUSH1 0x1 DUP1 PUSH1 0x3 DUP2 GT ISZERO PUSH2 0x152 JUMPI INVALID JUMPDEST PUSH1 0x0 DUP1 SWAP1 SLOAD SWAP1 PUSH2 0x100 EXP SWAP1 DIV PUSH1 0xFF AND PUSH1 0x3 DUP2 GT ISZERO PUSH2 0x16C JUMPI INVALID JUMPDEST EQ ISZERO ISZERO PUSH2 0x178 JUMPI PUSH1 0x0 DUP1 REVERT JUMPDEST PUSH1 0x0 PUSH1 0x1 SWAP1 SLOAD SWAP1 PUSH2 0x100 EXP SWAP1 DIV PUSH20 0xFFFFFFFFFFFFFFFFFFFFFFFFFFFFFFFFFFFFFFFF AND PUSH20 0xFFFFFFFFFFFFFFFFFFFFFFFFFFFFFFFFFFFFFFFF AND CALLER PUSH20 0xFFFFFFFFFFFFFFFFFFFFFFFFFFFFFFFFFFFFFFFF AND EQ ISZERO DUP1 PUSH2 0x221 JUMPI POP PUSH1 0x1 PUSH1 0x0 DUP4 PUSH20 0xFFFFFFFFFFFFFFFFFFFFFFFFFFFFFFFFFFFFFFFF AND PUSH20 0xFFFFFFFFFFFFFFFFFFFFFFFFFFFFFFFFFFFFFFFF AND DUP2 MSTORE PUSH1 0x20 ADD SWAP1 DUP2 MSTORE PUSH1 0x20 ADD PUSH1 0x0 KECCAK256 PUSH1 0x1 ADD PUSH1 0x0 SWAP1 SLOAD SWAP1 PUSH2 0x100 EXP SWAP1 DIV PUSH1 0xFF AND JUMPDEST ISZERO PUSH2 0x22B JUMPI PUSH2 0x2FF JUMP JUMPDEST PUSH1 0x1 DUP1 PUSH1 0x0 DUP5 PUSH20 0xFFFFFFFFFFFFFFFFFFFFFFFFFFFFFFFFFFFFFFFF AND PUSH20 0xFFFFFFFFFFFFFFFFFFFFFFFFFFFFFFFFFFFFFFFF AND DUP2 MSTORE PUSH1 0x20 ADD SWAP1 DUP2 MSTORE PUSH1 0x20 ADD PUSH1 0x0 KECCAK256 PUSH1 0x0 ADD DUP2 SWAP1 SSTORE POP PUSH1 0x0 PUSH1 0x1 PUSH1 0x0 DUP5 PUSH20 0xFFFFFFFFFFFFFFFFFFFFFFFFFFFFFFFFFFFFFFFF AND PUSH20 0xFFFFFFFFFFFFFFFFFFFFFFFFFFFFFFFFFFFFFFFF AND DUP2 MSTORE PUSH1 0x20 ADD SWAP1 DUP2 MSTORE PUSH1 0x20 ADD PUSH1 0x0 KECCAK256 PUSH1 0x1 ADD PUSH1 0x0 PUSH2 0x100 EXP DUP2 SLOAD DUP2 PUSH1 0xFF MUL NOT AND SWAP1 DUP4 ISZERO ISZERO MUL OR SWAP1 SSTORE POP PUSH1 0x1E PUSH1 0x3 SLOAD ADD TIMESTAMP GT ISZERO PUSH2 0x2FE JUMPI PUSH1 0x2 PUSH1 0x0 DUP1 PUSH2 0x100 EXP DUP2 SLOAD DUP2 PUSH1 0xFF MUL NOT AND SWAP1 DUP4 PUSH1 0x3 DUP2 GT ISZERO PUSH2 0x2F8 JUMPI INVALID JUMPDEST MUL OR SWAP1 SSTORE POP JUMPDEST JUMPDEST POP POP JUMP JUMPDEST PUSH1 0x0 DUP1 PUSH1 0x0 PUSH1 0x3 DUP1 PUSH1 0x3 DUP2 GT ISZERO PUSH2 0x316 JUMPI INVALID JUMPDEST PUSH1 0x0 DUP1 SWAP1 SLOAD SWAP1 PUSH2 0x100 EXP SWAP1 DIV PUSH1 0xFF AND PUSH1 0x3 DUP2 GT ISZERO PUSH2 0x330 JUMPI INVALID JUMPDEST EQ ISZERO ISZERO PUSH2 0x33C JUMPI PUSH1 0x0 DUP1 REVERT JUMPDEST PUSH1 0x0 SWAP3 POP PUSH1 0x0 SWAP2 POP JUMPDEST PUSH1 0x2 DUP1 SLOAD SWAP1 POP DUP3 PUSH1 0xFF AND LT ISZERO PUSH2 0x3AF JUMPI DUP3 PUSH1 0x2 DUP4 PUSH1 0xFF AND DUP2 SLOAD DUP2 LT ISZERO ISZERO PUSH2 0x368 JUMPI INVALID JUMPDEST SWAP1 PUSH1 0x0 MSTORE PUSH1 0x20 PUSH1 0x0 KECCAK256 ADD PUSH1 0x0 ADD SLOAD GT ISZERO PUSH2 0x3A2 JUMPI PUSH1 0x2 DUP3 PUSH1 0xFF AND DUP2 SLOAD DUP2 LT ISZERO ISZERO PUSH2 0x38E JUMPI INVALID JUMPDEST SWAP1 PUSH1 0x0 MSTORE PUSH1 0x20 PUSH1 0x0 KECCAK256 ADD PUSH1 0x0 ADD SLOAD SWAP3 POP DUP2 SWAP4 POP JUMPDEST DUP2 DUP1 PUSH1 0x1 ADD SWAP3 POP POP PUSH2 0x345 JUMP JUMPDEST PUSH1 0x0 DUP4 GT ISZERO ISZERO PUSH2 0x3BB JUMPI INVALID JUMPDEST POP POP POP SWAP1 JUMP JUMPDEST PUSH1 0x0 PUSH1 0x2 DUP1 PUSH1 0x3 DUP2 GT ISZERO PUSH2 0x3D1 JUMPI INVALID JUMPDEST PUSH1 0x0 DUP1 SWAP1 SLOAD SWAP1 PUSH2 0x100 EXP SWAP1 DIV PUSH1 0xFF AND PUSH1 0x3 DUP2 GT ISZERO PUSH2 0x3EB JUMPI INVALID JUMPDEST EQ ISZERO ISZERO PUSH2 0x3F7 JUMPI PUSH1 0x0 DUP1 REVERT JUMPDEST PUSH1 0x1 PUSH1 0x0 CALLER PUSH20 0xFFFFFFFFFFFFFFFFFFFFFFFFFFFFFFFFFFFFFFFF AND PUSH20 0xFFFFFFFFFFFFFFFFFFFFFFFFFFFFFFFFFFFFFFFF AND DUP2 MSTORE PUSH1 0x20 ADD SWAP1 DUP2 MSTORE PUSH1 0x20 ADD PUSH1 0x0 KECCAK256 SWAP2 POP DUP2 PUSH1 0x1 ADD PUSH1 0x0 SWAP1 SLOAD SWAP1 PUSH2 0x100 EXP SWAP1 DIV PUSH1 0xFF AND DUP1 PUSH2 0x45D JUMPI POP PUSH1 0x2 DUP1 SLOAD SWAP1 POP DUP4 PUSH1 0xFF AND LT ISZERO JUMPDEST ISZERO PUSH2 0x467 JUMPI PUSH2 0x530 JUMP JUMPDEST PUSH1 0x1 DUP3 PUSH1 0x1 ADD PUSH1 0x0 PUSH2 0x100 EXP DUP2 SLOAD DUP2 PUSH1 0xFF MUL NOT AND SWAP1 DUP4 ISZERO ISZERO MUL OR SWAP1 SSTORE POP DUP3 DUP3 PUSH1 0x1 ADD PUSH1 0x1 PUSH2 0x100 EXP DUP2 SLOAD DUP2 PUSH1 0xFF MUL NOT AND SWAP1 DUP4 PUSH1 0xFF AND MUL OR SWAP1 SSTORE POP DUP2 PUSH1 0x0 ADD SLOAD PUSH1 0x2 DUP5 PUSH1 0xFF AND DUP2 SLOAD DUP2 LT ISZERO ISZERO PUSH2 0x4B8 JUMPI INVALID JUMPDEST SWAP1 PUSH1 0x0 MSTORE PUSH1 0x20 PUSH1 0x0 KECCAK256 ADD PUSH1 0x0 ADD PUSH1 0x0 DUP3 DUP3 SLOAD ADD SWAP3 POP POP DUP2 SWAP1 SSTORE POP PUSH1 0x1E PUSH1 0x3 SLOAD ADD TIMESTAMP GT ISZERO PUSH2 0x52F JUMPI PUSH1 0x3 PUSH1 0x0 DUP1 PUSH2 0x100 EXP DUP2 SLOAD DUP2 PUSH1 0xFF MUL NOT AND SWAP1 DUP4 PUSH1 0x3 DUP2 GT ISZERO PUSH2 0x4FD JUMPI INVALID JUMPDEST MUL OR SWAP1 SSTORE POP PUSH32 0x6AC0C89219F0135E3A87CECDF1851ABCED71DA933A0A00E1EADA0EF035382351 PUSH1 0x40 MLOAD PUSH1 0x40 MLOAD DUP1 SWAP2 SUB SWAP1 LOG1 JUMPDEST JUMPDEST POP POP POP JUMP JUMPDEST PUSH1 0x0 DUP1 SWAP1 SLOAD SWAP1 PUSH2 0x100 EXP SWAP1 DIV PUSH1 0xFF AND DUP2 JUMP STOP LOG1 PUSH6 0x627A7A723058 KECCAK256 0xad 0x26 0x26 DUP7 0xba MOD 0xb2 0xb1 SWAP4 0xd 0xd8 CALL DUP13 0xbb OR 0x5c 0x47 PUSH20 0x96F70ABC65CC5EEDC07BD53CF671002900000000 "
				},
				"gasEstimates": {
					"creation": {
						"codeDepositCost": "279000",
						"executionCost": "infinite",
						"totalCost": "infinite"
					},
					"external": {
						"register(address)": "62191",
						"stage()": "528",
						"vote(uint8)": "83801",
						"winningProposal()": "infinite"
					}
				},
				"methodIdentifiers": {
					"register(address)": "4420e486",
					"stage()": "c040e6b8",
					"vote(uint8)": "b3f98adc",
					"winningProposal()": "609ff1bd"
				}
			},
			"userdoc": {
				"methods": {
					"register(address)": {
						"notice": "May only be called by $(chairperson)."
					},
					"vote(uint8)": {
						"notice": "Give a single vote to proposal $(toProposal)."
					}
				}
			}
		}
	}
}